:100000000C9487000C94231D0C94D81C0C94AF0006
:100010000C94AF1C0C94AF000C94AF000C94AF0088
:100020000C94AF000C94AF000C94AF000C94AF0094
:100030000C94AF000C94AF000C94AF000C94AF0084
:100040000C940D1C0C94AF000C947D1C0C94571C4C
:100050000C94AF000C94AF000C94AF000C94AF0064
:100060000C94AF000C94AF004E616E6F534420416E
:10007000726475696E6F2066772076302E33320099
:100080007C3C3E5E2B3D3F2F5B5D3B2C2A225C007F
:100090002E434153002E434153002E434153002E23
:1000A000434153002E434153002E434153004E4FD2
:1000B0004E414D452E43415300000000080002010F
:1000C0000000030407000000000000000000000022
:1000D00000250028002B0000000000240027002A33
:1000E00000040404040404040402020202020203E1
:1000F00003030303030102040810204080010204EB
:10010000081020010204081020007A1D6A2511241D
:100110001FBECFEFD8E0DEBFCDBF24E0A6E4B1E044
:1001200001C01D92A339B207E1F711E0A0E0B1E0F0
:10013000EEE4F1E502C005900D92A634B107D9F7BF
:1001400010E0C6E8D0E004C02197FE010E9410260E
:10015000C538D107C9F70E94131E0C949A280C9435
:10016000000090E0FC01EB50FF4F24918F519F4F16
:10017000FC018491882399F090E0880F991FFC017D
:10018000E952FF4FA591B491FC01E353FF4F8591D4
:1001900094918FB7F894EC91E22BEC938FBF089574
:1001A00090E0FC01E754FF4F2491FC01EB50FF4F1E
:1001B0003491FC01EF51FF4FE491EE23C9F022236B
:1001C00039F0233001F1A8F4213019F1223029F15E
:1001D000F0E0EE0FFF1FE353FF4FA591B4918FB7EF
:1001E000F894EC91611126C030953E233C938FBF6B
:1001F00008952730A9F02830C9F0243049F78091BC
:1002000080008F7D03C0809180008F778093800075
:10021000DFCF84B58F7784BDDBCF84B58F7DFBCFF7
:100220008091B0008F778093B000D2CF8091B000E2
:100230008F7DF9CF3E2BDACF2FB7F89460915A011A
:1002400070915B0180915C0190915D012FBF0895D9
:100250000895AF92BF92CF92DF92EF92FF920F93E9
:100260001F93CF93DF936C017B018B01040F151F4C
:10027000EB015E01AE18BF08C017D10759F06991B4
:10028000D601ED91FC910190F081E02DC601099518
:10029000892B79F7C501DF91CF911F910F91FF90C5
:1002A000EF90DF90CF90BF90AF900895FC01538DF9
:1002B000448D252F30E0842F90E0821B930B541740
:1002C00010F0CF96089501970895FC01918D828DCD
:1002D000981761F0A28DAE0FBF2FB11D5D968C9166
:1002E000928D9F5F9F73928F90E008958FEF9FEFA5
:1002F0000895FC01918D828D981731F0828DE80F61
:10030000F11D858D90E008958FEF9FEF0895FC011A
:10031000918D228D892F90E0805C9F4F821B9109E7
:100320008F739927089581E693E00E94870121E069
:10033000892B09F420E0822F089580E090E0892B3A
:1003400029F00E94930181110C9400000895FC0192
:10035000A48DA80FB92FB11DA35ABF4F2C91848D26
:1003600090E001968F739927848FA689B7892C9383
:10037000A089B1898C91837080648C93938D848DD6
:10038000981306C00288F389E02D80818F7D8083D9
:100390000895EF92FF920F931F93CF93DF93EC0199
:1003A00081E0888F9B8D8C8D98131AC0E889F9891C
:1003B000808185FF15C09FB7F894EE89FF8960831F
:1003C000E889F98980818370806480839FBF81E0A0
:1003D00090E0DF91CF911F910F91FF90EF900895E2
:1003E000F62E0B8D10E00F5F1F4F0F731127E02EBD
:1003F0008C8D8E110CC00FB607FCFACFE889F989F5
:10040000808185FFF5CFCE010E94A701F1CFEB8D52
:10041000EC0FFD2FF11DE35AFF4FF0829FB7F894C8
:100420000B8FEA89FB8980818062CFCFCF93DF93E6
:10043000EC01888D8823B9F0AA89BB89E889F989FC
:100440008C9185FD03C0808186FD0DC00FB607FC31
:10045000F7CF8C9185FFF2CF808185FFEDCFCE0164
:100460000E94A701E9CFDF91CF9108958FB7F8944B
:10047000809147018FBF089561E0FC0184810E9453
:10048000D0008091460181111092460108958EBDE1
:1004900000000DB407FEFDCF8EB508958FEF0C94CC
:1004A00047020F931F93CF93DF93EC010E941C012F
:1004B0008B010E944E028F3F69F00E941C01601B5D
:1004C000710B6C177D07A8F380E0DF91CF911F912E
:1004D0000F91089581E0F9CF8CBD9DBD0895CF9314
:1004E000DF93EC0180914601811109C081E0809386
:1004F00046018091FE039091FF030E946C0260E030
:100500008C81DF91CF910C94D0008F929F92AF920B
:10051000BF92FF920F931F93CF93DF93EC01F62EC0
:1005200049015A018E81882389F08F8198859C0129
:100530002F5F3F4F38872F838230924018F40E94FC
:100540004E02F3CFCE010E943C021E82CE010E94D9
:100550006F028CE291E00E9451028F2D80640E9414
:10056000470208E110E0D501C401002E04C0B69591
:10057000A795979587950A94D2F70E94470208504D
:100580001109083F8FEF180771F785E9FF2021F067
:1005900028E087E8F2128FEF0E94470210E00E94E5
:1005A0004E028A8787FF04C01F3F11F01F5FF7CFFD
:1005B000DF91CF911F910F91FF90BF90AF909F90CF
:1005C0008F900895AF92BF92CF92DF92EF92FF92F9
:1005D0000F931F93CF93DF93EC016901C801820F42
:1005E000931F8130924050F58E81882379F0888165
:1005F0009981AA81BB8184179507A607B70731F4B3
:100600008F819885C816D90608F042C0488359835F
:100610006A837B838B85833039F089E0440F551FD3
:10062000661F771F8A95D1F79A01AB0161E1CE0170
:100630000E948502882389F083E08D83CE010E9489
:100640003C0280E0DF91CF911F910F91FF90EF90DE
:10065000DF90CF90BF90AF9008950E941C015B0186
:100660000E944E028A878F3F69F40E941C016A191A
:100670007B096D327140A0F38FE08D83CE010E9423
:100680003C02DCCF8E3F89F418861F8281E08E8386
:100690008F8198858C159D0550F40E944E028F81A4
:1006A0009885019698878F83F3CF8DE0E6CF670119
:1006B000E00EF11E0E944E02F60181936F01EE15CD
:1006C000FF05C1F78F819885080F191F18870F83C1
:1006D0008985882319F001151240A0F08E818823A6
:1006E00089F08F8198859C012F5F3F4F38872F833A
:1006F0008230924018F40E944E02F3CFCE010E9445
:100700003C021E8281E09ECFCF92DF92EF92FF9259
:100710000F93CF93DF93EC01690182E141155105FD
:100720006105710599F08B85833039F089E0440FBC
:10073000551F661F771F8A95D1F79A01AB0168E1B3
:10074000CE010E948502882319F084E08D832DC09C
:100750008EEF0E94470276018EEFD81AF701819141
:100760007F010E944702EC14FD04C1F78FEF0E9445
:1007700047028FEF0E9447020E944E028A878F71C4
:10078000853071F4011116C0CE010E943C0281E057
:10079000DF91CF910F91FF90EF90DF90CF90089570
:1007A00081E18D83CE010E943C02CE010E943C0279
:1007B00080E0EECF88E592E00E945102811102C0F4
:1007C00085E1C4CF20E030E0A9016DE0CE010E94B8
:1007D0008502882311F084E1B9CF0E944E02811175
:1007E000FACFD2CF0F934091490150914A016091C5
:1007F0004B0170914C01411551056105710599F04E
:10080000082F21E631E080915F01909160010E9404
:100810008403882349F01092490110924A011092F2
:100820004B0110924C0181E00F9108950F93CF93EB
:10083000C82F80914801811105C0C1E08C2FCF9154
:100840000F910895409100015091010160910201C2
:10085000709103010C2F21E631E080915F019091AE
:1008600060010E948403811102C0C0E0E7CFCC2365
:1008700021F381E00E94F2038823B9F3109248012A
:10088000DDCF8F929F92AF92BF92EF92FF920F9324
:100890001F93CF934B015C01C42F80910001909175
:1008A0000101A0910201B091030188159905AA05E3
:1008B000BB0551F181E00E94160481110BC080E05C
:1008C000CF911F910F91FF90EF90BF90AF909F90AD
:1008D0008F90089581E6E82E81E0F82E00E012E086
:1008E00030E020E0B501A40180915F0190916001AA
:1008F0000E94E202882319F3809200019092010184
:10090000A0920201B0920301409148014C2B409308
:10091000480181E0D5CFCF93DF93EC016E857F85D1
:100920008889998941E00E944104882351F08A898D
:1009300020E2829FC00111248F599E4FDF91CF91F9
:10094000089590E080E0FACF8F929F92AF92BF928D
:10095000CF92DF92EF92FF92CF93C82F80E094E086
:100960009093600180935F01CC2309F478C040E04C
:1009700060E070E0CB010E94410481110BC080E077
:10098000CF91FF90EF90DF90CF90BF90AF909F906E
:100990008F9008952C2F2150330BC90144E0880F0C
:1009A000991F4A95E1F78F599E4FFC01E254FE4F83
:1009B00020812F7721F73C9640815181628173819C
:1009C0004436510561057105D0F28A539E4FFC01F2
:1009D000C080D180E280F380C114D104E104F1042D
:1009E00071F240E0C701B6010E944104882339F248
:1009F00080916C0190916D018115924009F0BFCFFB
:100A0000A0917101AA2309F4BACF60916F0170918E
:100A100070016115710509F4B2CF20916E01222396
:100A200009F4ADCFA0931E042093100490E080E061
:100A300030E0E1E0F0E0C82FAF01082E02C0440F23
:100A4000551F0A94E2F72417350769F041E0480F73
:100A500001968930910579F74093190490CFC12C04
:100A6000D12C7601BECF809319042091770130916B
:100A7000780150E040E02115310541F420918501D5
:100A80003091860140918701509188012093110493
:100A900030931204409313045093140446015701F9
:100AA000860E971EA11CB11C80921F0490922004F8
:100AB000A0922104B0922204E0917201F09173019E
:100AC000F0932504E0932404B0E00E94A025DC010B
:100AD000CB01880D991DAA1DBB1D80932604909300
:100AE0002704A0932804B093290425E0EE0FFF1FEC
:100AF0002A95E1F7E150FE4FEF2FFF27E6958E0F85
:100B00009F1FA11DB11D80931A0490931B04A093F5
:100B10001C04B0931D048090740190907501B12C59
:100B2000A12C8114910441F4809081019090820164
:100B3000A0908301B0908401C81AD90AEA0AFB0A7E
:100B4000C80CD91CEA1CFB1C04C0F694E794D7948B
:100B5000C794CA95D2F7C0921504D0921604E092B9
:100B60001704F09218048CE025EFC2162FE0D2068D
:100B7000E104F104C8F080E135EFC3163FEFD3067E
:100B8000E104F10488F080918D0190918E01A09193
:100B90008F01B09190018093260490932704A09335
:100BA0002804B093290480E28093230481E0E8CEF6
:100BB0004F925F926F927F928F929F92AF92BF926D
:100BC000CF92DF92EF92FF920F931F93CF93DF9319
:100BD000EC01423051056105710590F480E0DF9130
:100BE000CF911F910F91FF90EF90DF90CF90BF902A
:100BF000AF909F908F907F906F905F904F900895EF
:100C000089859A85AB85BC850196A11DB11D841788
:100C10009507A607B70710F3CB88DC88ED88FE8818
:100C20008F89803109F042C0BB27A72F962F852FCF
:100C3000480159012A013B01C80ED91EEA1EFB1EBC
:100C40008091000190910101A0910201B0910301F6
:100C5000C816D906EA06FB0699F58F898031C1F5D9
:100C6000B301A201552766277727440F551F4F5917
:100C70005E4FFA0191828082809148018160809369
:100C800048018A89823080F08D819E81AF81B8854C
:100C90008C0D9D1DAE1DBF1D8093490190934A018F
:100CA000A0934B01B0934C0181E099CFDB01CA01C5
:100CB000E7E0B695A79597958795EA95D1F7B8CFD0
:100CC00040E0C701B6010E9441048111C6CF86CF22
:100CD000B301A2014F77552766277727440F551F89
:100CE000440F551F4F595E4FFA0180829182A282B4
:100CF000B382C2CF8F929F92AF92BF92CF92DF9278
:100D0000EF92FF920F931F93CF93DF93FC018185A6
:100D10009285A385B4850196A11DB11D8417950701
:100D2000A607B70770F480E0DF91CF911F910F9174
:100D3000FF90EF90DF90CF90BF90AF909F908F90FB
:100D4000089583889488A588B6888789803189F535
:100D5000BB27A72F962F852FE9016A017B018F0101
:100D6000BC01CD01680D791D8A1D9B1D809000017D
:100D700090900101A0900201B090030186169706A1
:100D8000A806B90601F5F8018789803111F5DD243F
:100D9000EE24FF24F601EE0FFF1FEF59FE4F808176
:100DA0009181B0E0A0E088839983AA83BB8381E02E
:100DB000BBCFDB01CA01C7E0B695A795979587958C
:100DC000CA95D1F7C9CF40E00E9441048111DBCF21
:100DD000AACFE894C7F8DD24EE24FF24F601EE0F35
:100DE000FF1FEE0FFF1FEF59FE4F80819181A281FF
:100DF000B381BF70D8CF4F925F926F927F92AF92C4
:100E0000BF92CF92DF92EF92FF920F931F93CF93F7
:100E1000DF9300D000D0CDB7DEB78C0149835A8371
:100E20006B837C835901C12CD12C7601412C82E04B
:100E3000582E612C712C49815A816B817C819E01D5
:100E40002F5F3F4FC8010E947A06882339F1F801CD
:100E50008585A301920104C0220F331F441F551F33
:100E60008A95D2F7DA01C901C80ED91EEA1EFB1E07
:100E700049815A816B817C818789803111F188EFAA
:100E80009FEFAFEFBFE0481759076A077B0798F25B
:100E9000F501C082D182E282F38281E00F900F904F
:100EA0000F900F90DF91CF911F910F91FF90EF90D6
:100EB000DF90CF90BF90AF907F906F905F904F90FA
:100EC000089588EF9FEFA0E0B0E0DDCFCF93DF93F0
:100ED000FC012581222321F080E0DF91CF9108954C
:100EE000EC0180912304803159F582E08583178AD3
:100EF000108E118E128E8091240490912504B0E002
:100F0000A0E025E0880F991FAA1FBB1F2A95D1F7E3
:100F1000838B948BA58BB68B8CE094E09C8F8B8F0E
:100F200081E08C831E821F82188619861A861B8692
:100F30001C861D861E861F86188A198A1A8ACDCF9E
:100F4000803251F683E08583409126045091270436
:100F50006091280470912904478B508F618F728FA4
:100F60009F012D5E3F4F8CE094E00E94FB068111B3
:100F7000D3CFB2CF8F929F92AF92BF92CF92DF9298
:100F8000EF92FF920F931F93CF93DF93EC018D812C
:100F900081110EC080E0DF91CF911F910F91FF90E2
:100FA000EF90DF90CF90BF90AF909F908F9008957B
:100FB0000B891C892D893E890417150726073707D9
:100FC00048F34A015B01823031F48A869B86AC8605
:100FD000BD8681E0E0CF81149104A104B10449F4FD
:100FE0001E821F82188619861A861B861C861D86FD
:100FF000F0CF0A851B852C853D85EB8DFC8D858585
:1010000090E00996B901A80141505109610971099F
:10101000082E04C076956795579547950A94D2F7A0
:1010200075016401E1E0CE1AD108E108F10804C0BD
:10103000F694E794D794C7948A95D2F7C416D50648
:10104000E606F70620F0012B022B032B11F58F8902
:10105000988DA98DBA8D8E839F83A887B9878E01BD
:101060000A5F1F4FC114D104E104F10409F4ADCFAC
:101070004E815F816885798598018B8D9C8D0E945A
:101080007A0691E0C91AD108E108F1088111EACF86
:1010900081CFC41AD50AE60AF70AE1CF3F924F92F0
:1010A0005F926F927F928F929F92AF92BF92CF92F8
:1010B000DF92EF92FF920F931F93CF93DF93CDB701
:1010C000DEB72C970FB6F894DEBF0FBECDBF5C0124
:1010D000DC015B968D909C905C9716964D905D9090
:1010E0006D907C901997411451046104710409F4C6
:1010F00068C0BFEF4B1A5B0A6B0A7B0A312CF40104
:1011000081859285A385B4859C01AD012F5F3F4FFA
:101110004F4F5F4F29873A874B875C877301620186
:101120001D821E821F821886F40181859285A38507
:10113000B4852D813E814F815885281739074A078C
:101140005B0708F056C089859A85AB85BC858C15F0
:101150009D05AE05BF0550F482E0C82ED12CE12CD0
:10116000F12C92E0492E512C612C712C9E012F5FA5
:101170003F4FB701A601C4010E947A068823C9F136
:1011800089819A81AB81BC81892B8A2B8B2B09F1B8
:10119000260137019FEF491A590A690A790A2D81F8
:1011A0003E814F8158852F5F3F4F4F4F5F4F2D83BB
:1011B0003E834F8358873FEFC31AD30AE30AF30AEB
:1011C000B3CFF40140805180628073803324339424
:1011D00096CFC414D504E604F70409F70FEF1FEF08
:1011E0002FEF3FE0B701A601C4010E94D80581118D
:1011F00019C080E02C960FB6F894DEBF0FBECDBFAD
:10120000DF91CF911F910F91FF90EF90DF90CF90E2
:10121000BF90AF909F908F907F906F905F904F9016
:101220003F900895D50116964D915D916D917C91F9
:101230001997411551056105710539F0970186012E
:10124000C4010E94D8058823A1F2D5011696CD923B
:10125000DD92ED92FC921997332051F0D701C6012F
:101260000196A11DB11DF40180839183A283B383F4
:10127000F5018789908DA18DB28D892B8A2B8B2BBF
:1012800039F48481C78AD08EE18EF28E806884839F
:10129000F50184818062848381E0ACCF2F923F92FC
:1012A0004F925F926F927F928F929F92AF92BF9276
:1012B000CF92DF92EF92FF920F931F93CF93DF9322
:1012C000EC015B012A018D81811115C08FEF9FEF29
:1012D000DF91CF911F910F91FF90EF90DF90CF9012
:1012E000BF90AF909F908F907F906F905F904F9046
:1012F0003F902F9008958C8180FFE8CF0B891C8947
:101300002D893E894A855B856C857D85C201B0E06B
:10131000A0E068017901C41AD50AE60AF70AC816DE
:10132000D906EA06FB0618F42801441A550A4201B8
:101330001E0126E0220E311C8114910409F4B3C071
:101340004A855B856C857D856A0181E0D8228B8D1D
:101350009C8D8A019B01E9E03695279517950795A5
:10136000EA95D1F7ED81E230E1F5FC01628D738DF4
:10137000848D958D600F711F821F931F612C22E059
:10138000722E6C187D088614970408F434012C81A1
:1013900026FD04C06114F2E07F0671F400910001A3
:1013A00010910101209102013091030106171707E6
:1013B0002807390709F053C040E00E944104882300
:1013C00009F484CFC6018F599E4FD5019C01260D8B
:1013D000371DFC012E173F0709F460C041914D9362
:1013E000F9CFFC0174807A947022C114D10471F495
:1013F00071100CC0452B462B472B39F58F89988DE2
:10140000A98DBA8D8E839F83A887B987EB8DFC8DBC
:101410006E817F8188859985625071098109910962
:10142000258504C0660F771F881F991F2A95D2F75C
:101430000685178520893189600F711F821F931FD0
:10144000670D711D811D911D99CF4E815F8168854A
:10145000798591010E947A068111D8CF37CF750125
:1014600083019601AB01BC0180915F019091600105
:101470000E94E202882309F429CFA60CB71C8A85B2
:101480009B85AC85BD85860D971DA11DB11D8A87E5
:101490009B87AC87BD87861897084ECF281B390BD2
:1014A000A20EB31EECCFC20113CF1F93CF93DF93D5
:1014B000FC012581222371F1162FEC01848187FF25
:1014C0001EC0CF010E948B04FC01892B19F18D8174
:1014D000823040F48B899C89AD89BE89848F958F39
:1014E000A68FB78F8F89988D938F828F8F89988DD4
:1014F000A98DBA8DB58BA48B8C818F778C831111BC
:1015000003C08C818F7E8C83812FDF91CF911F91BF
:101510000C94160480E0DF91CF911F910895FF9203
:101520000F931F93CF93DF93EC018D81813041F0B6
:1015300090E080E0DF91CF911F910F91FF9008958F
:101540008C8181FFF5CF82FD1BC000915F0110915E
:101550006001C8010E946F020E944E02F82EC8016D
:101560000E943C028FEFF812E3CF8C8185FF1BC0F5
:1015700060E0CE010E94550A8C818F7D8C83D8CF8C
:101580004B895C896D897E898A859B85AC85BD8503
:1015900084179507A607B707C1F2CE010E94BA07C4
:1015A0008111D3CFC5CF4091490150914A0160913B
:1015B0004B0170914C01452B462B472B21F080E0CD
:1015C0000E94F203B5CF80618C832A853B85317000
:1015D00080E092E0821B930BADCFCF93DF93EC01C1
:1015E00061E00E94550A882311F01D8281E0DF919D
:1015F000CF910895CF92DF92EF92FF921F93CF93F6
:10160000DF9380912F04882321F08AE294E00E94E6
:10161000ED0A10920B041092090410920604109225
:1016200005048AE0809304040E941C01EB01809170
:1016300004040E94B10061E0809104040E94D00083
:101640001FB7F89480915E01811124C0EBEEF0E0A9
:101650008491EFEFF0E09491E82FF0E0EE0FFF1FA0
:10166000E952FF4FA591B491EC91E92321F461E097
:101670008AE00E94D0008AE00E94B1008CB58061AF
:101680008CBD8CB580648CBD8DE00E94B1008BE078
:101690000E94B10080915E018F5F80935E011FBF49
:1016A00082E58093FE031092FF038091FE039091E8
:1016B000FF030E946C021AE08FEF0E944702115054
:1016C000D9F780E094E00E946F0220E030E0A901A9
:1016D00060E080E094E00E948502182F80930A0465
:1016E000813081F00E941C016C1B7D0B613D7740B5
:1016F00060F381E08093050480E094E00E943C0266
:1017000090E078C02AEA31E040E050E068E080E014
:1017100094E00E94850282FF2AC010930B048091FE
:101720000B04C12CD12C7601823029F4C12CD12C90
:10173000E12C80E4F82E20E030E0A90167E380E0AE
:1017400094E00E948502A701960169E280E094E09E
:101750000E94850280930A048823C1F00E941C0124
:101760006C1B7D0B613D774030F388E0C3CF14E004
:101770000E944E0280930A041150D1F78A3A11F068
:1017800082E0B8CF82E080930B04C9CF80910B0434
:101790008230D1F420E030E0A9016AE380E094E0F7
:1017A0000E948502882311F086E0A4CF0E944E0299
:1017B000807C803C19F483E080930B040E944E02ED
:1017C0000E944E020E944E0280E094E00E943C0281
:1017D00080E58093FE031092FF0381E00E94A40441
:1017E000882389F08AE294E00E94660791E08823CA
:1017F00009F486CF892FDF91CF911F91FF90EF9051
:10180000DF90CF90089582E00E94A4048111EACF76
:1018100083E00E94A4048111E5CF84E00E94A40427
:101820008111E0CF0E94A4048111DCCF69CF8F9297
:101830009F92AF92BF92CF92DF92EF92FF92CF939F
:10184000DF93EC010E944E0881110CC080E0DF9113
:10185000CF91FF90EF90DF90CF90BF90AF909F908F
:101860008F900895EB8DFC8DCE80DF80E884F98425
:1018700082E0C81AD108E108F108858504C0CC0CC3
:10188000DD1CEE1CFF1C8A95D2F786859785A08902
:10189000B189C80ED91EEA1EFB1E8481460157017C
:1018A000880E911CA11CB11CC814D904EA04FB04C5
:1018B000F9F081E0881A9108A108B10881E00E943E
:1018C0001604882319F2E1E6F1E0119283E0E13693
:1018D000F807D9F78092000190920101A0920201CD
:1018E000B092030180914801816080934801DCCF70
:1018F000EB8DFC8D258580E092E0A0E0B0E004C097
:10190000880F991FAA1FBB1F2A95D2F74B895C89A4
:101910006D897E89840F951FA61FB71F8B8B9C8BAB
:10192000AD8BBE8B81E093CF2F923F924F925F920F
:101930006F927F928F929F92AF92BF92CF92DF92DF
:10194000EF92FF920F931F93CF93DF9300D000D0BD
:101950001F92CDB7DEB77C015B01342E5D83DC01C5
:1019600015968C911597813009F0CEC014962C9065
:1019700021FECAC022FCB4C0C32CDD8022947FE0CB
:1019800027222094B22DB1702B2ED7011A964D919B
:101990005D916D917C911D97C114D10409F428C10A
:1019A0005B968D919C915C97FC0174807A948A017E
:1019B0009B0169E036952795179507956A95D1F7AC
:1019C00070228A011170711020C001151105E9F40F
:1019D00016964D915D916D917C9119974115510528
:1019E0006105710509F099C057968D919D910D90F3
:1019F000BC91A02D0097A105B10509F0B0C0C701A9
:101A00000E944E08882309F47FC080E092E0801B8A
:101A1000910B46018C159D0508F44C01D7015B968E
:101A20004D915C915C9716968D919D910D90BC9116
:101A3000A02D0297A109B109FA01258504C0880FDC
:101A4000991FAA1FBB1F2A95D2F746855785608923
:101A50007189840F951FA61FB71F9C01AD01270D2B
:101A6000311D411D511D29013A01811432E09306B7
:101A700009F07BC08091000190910101A0910201C9
:101A8000B091030184159505A605B70559F48FEFAC
:101A90009FEFDC018093000190930101A09302016C
:101AA000B0930301022D9501B301A20180915F0162
:101AB000909160010E948403882331F19EEFB91A4E
:101AC000C818D908F70182859385A485B585880D46
:101AD000991DA11DB11D82879387A487B58755CF16
:101AE000F701438954896589768982859385A48520
:101AF000B585481759076A077B0709F43DCFC70129
:101B00000E94BA07811138CF81E090E0D701139687
:101B10009C938E93129780E007C09E012F5F3F4FEA
:101B20000E947A06811102C090E079C089819A8171
:101B3000AB81BC81F701238D348DF901278948EFF2
:101B40005FEF60E070E0203121F048EF5FEF6FEF72
:101B50007FE084179507A607B70708F050CFF70175
:101B600086839783A087B18750CF0115110599F51A
:101B7000D7011A964D915D916D917C911D97539669
:101B80008D919D910D90BC91A02D481759076A0722
:101B90007B0708F181E00E941604882309F4B4CF82
:101BA0004092000150920101609202017092030183
:101BB00080914801816080934801C8018F599E4FF0
:101BC000D5019C01280D391DFC012E173F0759F046
:101BD0004D914193FACF41E0C301B2010E9441040B
:101BE0008111EBCF91CF281B390BA20EB31E68CF0A
:101BF000F70183899489A589B68984179507A60773
:101C0000B70738F48481438B548B658B768B80685F
:101C10008483F701848183FD1AC0832D9D810F90F9
:101C20000F900F900F900F90DF91CF911F910F9118
:101C3000FF90EF90DF90CF90BF90AF909F908F90EC
:101C40007F906F905F904F903F902F90089561E04C
:101C5000C7010E94550A882309F456CFDECFCF93DF
:101C6000DF931F92CDB7DEB7698341E050E0BE013C
:101C70006F5F7F4F0E94940C0F90DF91CF9108957A
:101C8000FC01DB0112968D919C91139793838283C3
:101C900084E391E09183808314968C9114978483DC
:101CA00015968C911597858316964D915D916D9142
:101CB0007C91199746835783608771871A964D9157
:101CC0005D916D917C911D974287538764877587DD
:101CD0001E964D915D916D917C91519746875787E6
:101CE000608B718B52968C915297828B53964D914B
:101CF0005D916D917C915697438B548B658B768B60
:101D000057964D915D916D917C915A97478B508F6D
:101D1000618F728F5B968D919C91948F838F0895C4
:101D2000DC015996ED91FC91309721F081E095818D
:101D3000911101C080E00895FC01818D928D009782
:101D400019F061E00C94550A0895DC015996ED9163
:101D5000FC913097B9F083899489A589B689428529
:101D6000538564857585841B950BA60BB70B811570
:101D700020E89207A105B10538F08FEF9FE7A0E0BA
:101D8000B0E0089590E080E00895DC0159968D91CF
:101D90009C91009739F0DC01ED91FC910480F58174
:101DA000E02D099490E080E00895CF93DF93EC015B
:101DB000E98DFA8D309749F481E090E09B838A8326
:101DC00090E080E0DF91CF91089513821282898D97
:101DD0009A8D0E94940CE98DFA8D22813381232BF8
:101DE00059F7F0CFCF93DF931F92CDB7DEB769835A
:101DF000DC01ED91FC910280F381E02D41E050E0A7
:101E0000BE016F5F7F4F09950F90DF91CF910895CD
:101E1000DC015996ED91FC91309721F081E095819C
:101E2000923008F480E00895FC011382128288EE5B
:101E300093E0A0E0B0E084839583A683B78380E13C
:101E400091E091838083128E118E14860895CF9332
:101E5000DF931F92CDB7DEB741E050E0BE016F5F68
:101E60007F4F0E944E09019731F4898190E00F90D5
:101E7000DF91CF9108958FEF9FEFF9CF1F93CF930D
:101E8000DF93FC012581223030F490E080E0DF9187
:101E9000CF911F910895EC01428553856485758526
:101EA00085E076956795579547958A95D1F7142FD4
:101EB0001F70CF010E94270F97FDE7CF8A859B8572
:101EC000AC85BD854F96A11DB11D8A879B87AC87C8
:101ED000BD87F0E21F9FC00111248F599E4FD7CFBD
:101EE000FC01818D928D009711F00C94270F8FEFDC
:101EF0009FEF08950F931F93CF93DF93EC01898D8C
:101F00009A8D10E000E0009799F00E94270F8C0155
:101F10000F3F100769F0898D9A8DFC01428553852A
:101F20006485758541505109610971090E94BA079C
:101F3000C801DF91CF911F910F910895CF93DF9347
:101F4000FB0122813381DC0113963C932E9312977F
:101F5000448155816681778114964D935D936D938D
:101F60007C931797408551856285738518964D93AC
:101F70005D936D937C931B971C96EF012C969C01AF
:101F8000275E3F4F49914D93A217B307D9F7218D93
:101F9000328DFC01328F218FDF91CF91089590E037
:101FA00080E00895FC01938184819817E1F3A38177
:101FB00080819181A80FB92FB11D8C9193819F5F72
:101FC0002281921301C090E093830895FC018481E3
:101FD0008F5F9281891301C080E093819817E9F3A4
:101FE000A48120813181A20FB32FB11D6C93848312
:101FF00008958F929F92AF92BF92CF92DF92EF920D
:10200000FF920F931F93CF93DF9300D000D0CDB7F3
:10201000DEB7FC018581813091F080E00F900F9058
:102020000F900F90DF91CF911F910F91FF90EF9044
:10203000DF90CF90BF90AF909F908F900895848154
:1020400081FFEBCF83899489A589B689892B8A2B57
:102050008B2B09F45FC07F0140E050E0BA01CF0153
:102060000E94BA078823C9F2F701C38CD48C8788F1
:10207000908CA18CB28C82E090E0A0E0B0E0F60100
:1020800080839183A283B3839E012F5F3F4FB5016D
:10209000A401C6010E947A06882309F4BECF00E09D
:1020A00010E09801B501A401C6010E94D80588235B
:1020B00009F4B3CF89809A80AB80BC80F601878910
:1020C000803119F188EF9FEFAFEFBFE088169906D6
:1020D000AA06BB06C8F2F701178A108E118E128E5F
:1020E000138A148A158A168A84818068848361E041
:1020F000C7010E94550A882309F48FCF40E050E0C1
:10210000BA01C7010E94BA0789CF88EF9FEFA0E00C
:10211000B0E0DCCF81E082CFCF93DF93EC010E946F
:10212000F90F882371F0CE010E948B04009749F0CB
:1021300025EEFC0120831D8281E0DF91CF910C947C
:10214000160480E0DF91CF910895CF92DF92EF9255
:10215000FF921F93CF93DF93EC0180E2689FF00121
:102160001124EF59FE4F9385917161F0842F827491
:1021700049F080E0DF91CF911F91FF90EF90DF90C9
:10218000CF900895142F6A8B8091000190910101E6
:10219000A0910201B09103018E879F87A88BB98B14
:1021A000C488D588F12CE12C7601DD24CC24CF8A9B
:1021B000D88EE98EFA8E828D938DB0E0A0E0AC01CE
:1021C000BD014C295D296E297F294F8B588F698F5E
:1021D0007A8F83858871B1F4848D958DA68DB78DA6
:1021E0008B8B9C8BAD8BBE8B81E08D831F701C8392
:1021F0001E821F82188619861A861B861C861D86DB
:1022000081E0B8CF803109F0B4CF9E012D5E3F4F01
:102210008B8D9C8D0E94FB06882309F4AACF84E055
:10222000E4CFCF92DF92EF92FF920F931F93CF9361
:10223000DF93C82F7B01D09187042D2F30E0082F2A
:1022400010E08091890490918804891788F1891B96
:10225000800F912F911D821793079CF7809189041D
:10226000281B3109021713072CF180918904D81B10
:10227000CD2ED12C209189048091850490918604E3
:10228000A601B701820F911D0E943428CD17A1F03D
:10229000A8014C195D09B7016C0D7D1D8091850465
:1022A000909186040E943428CD1BC09389040FC0EE
:1022B0008D0FCDCFDC2FDCCF40918904040F111D91
:1022C000809187048017110659F410928904DF91D8
:1022D000CF911F910F91FF90EF90DF90CF900895D5
:1022E00080918904C80FE1CFEF92FF920F931F9363
:1022F000CF93DF93EC017B018A011B821A8288EE67
:1023000093E0A0E0B0E08C839D83AE83BF8380E147
:1023100091E0998388838DE190E00E9438269A8F1E
:10232000898F009779F02DE1F701DC0101900D9282
:102330002A95E1F74CE050E0B801CE010C960E94DE
:102340006628188EDF91CF911F910F91FF90EF902B
:102350000895AF92BF92CF92DF92EF92FF920F93C8
:102360001F93CF93DF93CDB7DEB7C756D1090FB612
:10237000F894DEBF0FBECDBF8C016B01DB01599617
:10238000ED90FC90F7018581823008F4C1C0828510
:102390009385A485B5858F719927AA27BB27892B9B
:1023A0008A2B8B2B09F0B4C040E250E0BE016F5F76
:1023B0007F4FC7010E944E09803209F0A9C0898170
:1023C000882309F4A5C0853E79F38E3269F38C85A4
:1023D00083FDEACF22961FAE1EAE229784E391E0E2
:1023E0009FAF8EAF24961FAE2497D6015996AD901D
:1023F000BC90F501C284D384E484F584F0E2CF1A62
:10240000D108E108F10885E0F694E794D794C794E1
:102410008A95D1F7D5015B968D919C916B969FAF74
:102420008EAF6B97A60195E0440F551F9A95E1F783
:1024300070E060E0C5010E94BA07882309F468C013
:10244000C5010E943E0F009709F462C0FC01808123
:10245000882309F45DC0853E09F45AC08E3209F420
:1024600057C06C2D6F7041E0CE01CE960E94A51032
:10247000882309F44DC0BE016F5F7F4FE0E080E02C
:102480002EE2DB019D91BD019032A1F0883049F42C
:102490004BE550E04C0F5D1F4E0F511DDA012C93A0
:1024A000EF5F4BE550E04C0F5D1F4E0F511DDA0101
:1024B0009C93EF5F8F5F8B3021F78BE590E08C0F63
:1024C0009D1F8E0F911DFC011082BE01625C7F4F2B
:1024D000CE0181960E94400EAE01455A5F4FBE016B
:1024E0006F5D7F4FC8010E947411C801C959DF4F49
:1024F0000FB6F894DEBF0FBECDBFDF91CF911F9115
:102500000F91FF90EF90DF90CF90BF90AF90089524
:10251000C8010E94140FE9CFFC0124813581FB0121
:102520004481558124173507A0F0FC0180819181F9
:10253000009779F0FB01608171816115710549F0A7
:10254000241B350B820F931F0E94482821E0892B02
:1025500009F020E0822F08950E941A28CF93DF937C
:10256000FC01C081D181209761F08991882349F0D5
:10257000082E000C990B0E941F28FE0131978083C2
:10258000F4CFDF91CF910895FB0144815581FC0187
:10259000248135812417350778F080819181009757
:1025A00059F0FB01608171816115710529F00E946C
:1025B000582821E0892B09F020E0822F08958F927E
:1025C0009F92AF92BF92CF92DF92EF92FF920F93C2
:1025D0001F93CF93DF936C01EB017C018CE0E80E3D
:1025E000F11CF70101900020E9F731978F010E19D6
:1025F0001F09FB0190E080E020E280179107A4F51D
:10260000D701A80FB91F3C913083019631968C30C9
:10261000910599F7C6010E94080F91E089278C87E0
:10262000D6015996ED91FC91812C912C5401309753
:1026300021F083889488A588B688C6010E94080F77
:102640008823A1F01D861E861F86188A81E1DF91EE
:10265000CF911F910F91FF90EF90DF90CF90BF909F
:10266000AF909F908F9008952083CFCF04301105B5
:1026700078F0C80104976CE371E08E0D9F1D0E94F5
:102680004828892B29F4B0E88B1A9108A108B108D1
:102690008D869E86AF86B88AD9CF0F931F93CF932E
:1026A000DF938C01EB01FC01808191810097E1F0C7
:1026B0006881798161157105A9F0428153812C816E
:1026C0003D814217530770F00E9451288C819D81F3
:1026D000F801958384831D821C82DF91CF911F9125
:1026E0000F9108950E94D42688819981F8019183E1
:1026F00080838A819B81938382838C819D81958352
:102700008483198218821B821A82E5CFCF93DF93CC
:10271000EC0188819981009711F00E94D4261982DA
:1027200018821D821C821B821A82DF91CF9108952C
:10273000FC0180819181009711F00C94D4260895BA
:10274000CF93DF93EC01898D9A8D009741F00E9421
:10275000ED0A898D9A8D0E94D4261A8E198EDF91EA
:10276000CF9108950F931F93CF93DF93EC0188814E
:102770009981009759F02A813B812617370730F05D
:1027800081E0DF91CF911F910F9108958B016F5FD1
:102790007F4F0E945D27009759F0998388831B83A0
:1027A0000A832C813D81232B59F7FC011082E8CF4D
:1027B00080E0E7CFEF92FF920F931F93CF93DF93C9
:1027C000EC017B01CB010E9481250097A9F00C81CF
:1027D0001D81080F191FB801CE010E94B213882372
:1027E00061F0288139818C819D81B701820F931F0F
:1027F0000E947A251D830C8381E0DF91CF911F9188
:102800000F91FF90EF900895EF92FF920F931F9317
:10281000CF93DF936115710541F480E0DF91CF9193
:102820001F910F91FF90EF90089541155105B1F060
:102830007B01EC010C811D81040F151FB8010E9462
:10284000B213882351F3288139818C819D81B7018E
:10285000820F931F0E9451281D830C8381E0DECFDD
:10286000CF93DF93EC01FB0144815581608171813D
:102870000E940414811103C0CE010E948613CE0170
:10288000DF91CF910895CF93DF9300D0CDB7DEB71E
:1028900069831A8241E050E0BE016F5F7F4F0E9462
:1028A00004140F900F90DF91CF910895EF92FF9253
:1028B0000F931F93CF93DF93EC018B01CB010E9409
:1028C00081257C01BC01CE010E94B21381110BC095
:1028D000CE010E948613CE01DF91CF911F910F91FF
:1028E000FF90EF900895FD82EC82B8018881998174
:1028F0000E947A25F0CFEF92FF920F931F93CF9310
:10290000DF93EC017B018A01BA010E94B2138111AD
:102910000BC0CE010E948613CE01DF91CF911F9193
:102920000F91FF90EF9008951D830C83B70188816C
:1029300099810E945128F0CFCF93DF93EC0161156C
:10294000710571F0FB0101900020E9F73197AF01AB
:10295000461B570B0E947B14CE01DF91CF91089547
:102960000E948613F9CFCF93DF93EC01FB0186170A
:10297000970749F0608171816115710541F04481CB
:1029800055810E947B14CE01DF91CF9108950E9462
:102990008613F9CFFC0111821082138212821582F4
:1029A00014820C94B314FC011182108213821282DF
:1029B00015821482FB0101900020E9F73197AF01E5
:1029C000461B570B0C947B14AF92BF92CF92DF92B1
:1029D000EF92FF920F931F93CF93DF935C016B01F4
:1029E0007A0189012417350720F48F2D7901042FEE
:1029F000182F64E471E0C5010E94D314D601149627
:102A0000CD91DC91EC16FD06C8F40C171D0708F4F7
:102A1000E801D601ED91FC911197EC0FFD1F10819B
:102A200010826D917C916E0D7F1DC5010E949C14DA
:102A3000F60180819181C80FD91F1883C501DF91EC
:102A4000CF911F910F91FF90EF90DF90CF90BF90AB
:102A5000AF9008958F929F92AF92BF92CF92DF92E4
:102A6000EF92FF920F931F93CF93DF9300D000D08C
:102A700000D0CDB7DEB77C015B014A0164E471E0B0
:102A80000E94D3148501D12CC12CF50180898C15AD
:102A90001D04E1F0DCF0F801218130E0408150E0DC
:102AA000B401CE0101960E94E4144D815E816981DA
:102AB0007A81C7010E940414CE0101960E949813E6
:102AC000FFEFCF1ADF0A0E5F1F4FDFCFC701269639
:102AD0000FB6F894DEBF0FBECDBFDF91CF911F912F
:102AE0000F91FF90EF90DF90CF90BF90AF909F90AD
:102AF0008F9008959F92AF92BF92CF92DF92EF9204
:102B0000FF920F931F93CF93DF93CDB7DEB76D97EF
:102B10000FB6F894DEBF0FBECDBF8C01198A64E4F6
:102B200071E00E94D3148AE894E00E94D20FA82E8C
:102B3000882329F0682FC8010E944314F4CF80E84D
:102B400090E0909305018093040162E471E0CE016E
:102B500042960E94D314BE016E5E7F4FC8010E9450
:102B6000C412F82ECE0142960E949813FF20A1F0C5
:102B7000F8012481358142E050E0B801CE0142964F
:102B80000E94E414BE016E5E7F4FC8010E944D1387
:102B9000CE0142960E94981363E471E0CE01429602
:102BA0000E94D314BE016E5E7F4FC8010E94C41202
:102BB000F82ECE0142960E949813F11013C069E4DA
:102BC00074E0CE0142960E94CA14B801CE0142962A
:102BD0000E943014BC01C8010E94B314CE01429679
:102BE0000E94981363E471E0CE0142960E94D314D0
:102BF000BE016E5E7F4FC8010E948C12F82ECE017E
:102C000042960E949813F11007C041E050E063E43F
:102C100071E0C8010E940414F801B480AB1408F0FC
:102C20005AC0CA2CD12C63E471E0CE0142960E94B6
:102C3000D314F80184819581C816D90608F043C0E1
:102C4000E080F1806A897B89C7018C0D9D1D0E94FF
:102C500080280097C1F19C012E193F0979019E2C13
:102C6000CE0142960E949813970133272F5F3F4F62
:102C7000A601B801CE0142960E94E4148E899F8974
:102C8000F9889394892B41F061E471E08A899B89EA
:102C90000E944828892BD9F037E03F1570F0EF2DBE
:102CA000F0E0EE0FFF1F81E090E08C0F9D1FE80F1A
:102CB000F91FA0829182F394F98AA92CCE01429641
:102CC0000E949813ABCFEE24EA94FE2CC8CFFF20CD
:102CD000A1F3FA94F1CFB801CE0142960E94CA1432
:102CE000AE014E5E5F4FBE016F5F7F4FCE014896D3
:102CF0000E942A15BE01685E7F4FC8010E944D13D5
:102D0000CE0148960E949813CE0142960E949813D5
:102D1000C8016D960FB6F894DEBF0FBECDBFDF9130
:102D2000CF911F910F91FF90EF90DF90CF90BF90C8
:102D3000AF909F9008959F92AF92BF92CF92DF92F3
:102D4000EF92FF920F931F93CF93DF93CDB7DEB730
:102D50002B970FB6F894DEBF0FBECDBF8C01FC01E0
:102D60008581811115C0FE013196CE010C965F015F
:102D700030E23193E817F907E1F7DA0130E087E054
:102D80009D91D92E992329F19E3239F48A3011F47C
:102D900080E0B9C038E08AE0F3CFE0E8F0E04491A9
:102DA000442321F031969413FACFF2CF831780F3A6
:102DB0004FED490F4E3560F74FE9490F4A3118F48E
:102DC00040EED42ED90EF501E30FF11DD0823F5F06
:102DD000D7CF89818032E1F2C22E7B01FB01838D46
:102DE000948DF801948F838FFB01168217821086D1
:102DF00011861286138614861586F70182859385BF
:102E0000A485B58543895489658976898417950792
:102E1000A607B70790F525E0B695A79597958795EE
:102E20002A95D1F7F82FFF709F2EC7010E943E0F01
:102E3000009709F4ADCFFC012081222341F0253E0B
:102E400009F04EC0DD2029F0DD24D394D6CFD11077
:102E50000EC0F801928A40910001509101016091E9
:102E600002017091030146875787608B718BFC01CB
:102E700080818111E9CFDD24D3948C2D8271823140
:102E800009F086CFDD2009F450C0C8010E948B04F0
:102E9000009709F47DCF20E2FC0111922A95E9F711
:102EA0002BE0F501DC0101900D922A95E1F721E27A
:102EB00038E2FC01318B208B40E058E05787468791
:102EC000338B228B318F208F578B468B81E00E9472
:102ED0001604882309F45CCF4C2DF801628910C0D8
:102EE0004BE050E0BC01C5010E942728892B09F066
:102EF00084CF8C2D80734C2D692D803309F448CFFD
:102F0000C8010E94A5102B960FB6F894DEBF0FBE25
:102F1000CDBFDF91CF911F910F91FF90EF90DF9088
:102F2000CF90BF90AF909F900895F7018581823038
:102F300009F42ECFC7010E94170C882309F428CF6B
:102F4000F801128A81E691E0A6CF2F923F924F922C
:102F50005F926F927F928F929F92AF92BF92CF9229
:102F6000DF92EF92FF920F931F93CF93DF93CDB732
:102F7000DEB7C756D1090FB6F894DEBF0FBECDBF7E
:102F80004C013B01A6964FAFA69719A218A284E365
:102F900091E09F8F8E8F1BA21C821B829A83898354
:102FA0001E825E018EE1A80EB11CC5010E9466075B
:102FB00063018E010F5F1F4F250118016FE270E062
:102FC000C6010E943D28009709F459C0F6012081EE
:102FD0002F3271F4FFEFCF1ADF0A902F812F820179
:102FE000492E582E942D852D2801092F182FE6CF14
:102FF0008C198D3008F08CE0E82EF12CA701B60179
:10300000CE01885A9F4F0E946628E8E5F0E0EC0F59
:10301000FD1FEE0DFF1D1082C8010E94ED0A21E088
:10302000AE01485A5F4FB201C8010E949B16811140
:1030300020C01EAE1DAE84E391E09CAF8BAF219605
:103040001FAE2197A896EEADFFADA8976E0E7F1E1E
:10305000F3018081811120C0BE01655C7F4FC101F9
:103060000E94400E43E451E0B101C4010E9474117A
:1030700022C0CE0CDF1CC2010E94ED0AB3CFC601F4
:1030800086199709A8969FAF8EAFA897B201CE0177
:10309000CB960E94400ED6CF19A218A284E391E0ED
:1030A0009F8F8E8F1BA221968FAD219781111EC0FD
:1030B000C4010E94140FC401C959DF4F0FB6F89420
:1030C000DEBF0FBECDBFDF91CF911F910F91FF905B
:1030D000EF90DF90CF90BF90AF909F908F907F90B8
:1030E0006F905F904F903F902F900895A6962FADD0
:1030F000A697A301BE01655C7F4FC5010E949B1688
:103100008823B1F2CE01CB960E94ED0AA6968FAD30
:10311000A6978670863039F449A95AA96BA97CA96B
:10312000C5010E94BA07B501C1010E94400EA3016A
:103130009BCFCF93DF93CDB7DEB76B970FB6F894E5
:10314000DEBF0FBECDBF80E89AE1A6E0B0E0000090
:103150000197A109B109D9F7F89482E0809368003A
:1031600090E290936C008BBB7894359B23C086E8EB
:1031700090E09093050180930401109254018FE434
:1031800094E00E94900E882321F08FE494E00E9446
:10319000A01380914D01882321F08AE694E00E94DB
:1031A000A0136B960FB6F894DEBF0FBECDBFDF91B4
:1031B000CF910895809154018111F3CF80916E00D9
:1031C000816080936E000E94FA0A8823D9F1609191
:1031D000490470914A0441E0CE0101960E94A5176E
:1031E000BE016F5F7F4F8FE494E00E949E0F8FE4DB
:1031F00094E00E94900E811116C041E063E471E0FA
:10320000CE0101960E94A517BE016F5F7F4F8FE42C
:1032100094E00E949E0F41E050E063E471E089E495
:1032200094E00E947B148FE494E00E94900E882327
:1032300049F081E08093540180E890E0909305018B
:103240008093040180916E008E7F80936E00A9CFE1
:103250004F925F926F927F928F929F92AF92BF92A6
:10326000CF92DF92EF92FF920F931F93CF93DF9352
:10327000CDB7DEB7C754D1090FB6F894DEBF0FBE85
:10328000CDBF5C013B0119A218A284E391E09F8F9E
:103290008E8F1BA21C821B829A8389831E8210E060
:1032A00000E06E018EE1C80ED11C8AE2E82E84E0B7
:1032B000F82EF501E00FF11F80818F3211F40F5FBE
:1032C0001F4FD501A00FB11FFE01FB9690E080E0DB
:1032D0004F012D912F3249F0222339F00F5F1F4FFC
:1032E000019621938C309105A1F7880D991DFC0161
:1032F0001082F501E00FF11F80818F3211F40F5F12
:103300001F4FF501E00FF11F408041E0411040E008
:1033100030E020E0B401C701F3010995582E811176
:103320001FC0FAE2EF16F4E0FF0699F5512C852D47
:10333000C95BDF4F0FB6F894DEBF0FBECDBFDF9184
:10334000CF911F910F91FF90EF90DF90CF90BF90A2
:10335000AF909F908F907F906F905F904F90089567
:10336000442091F021E0A401B701C6010E949B1600
:10337000982E8AE2E81684E0F80679F0C7010E94E8
:10338000ED0A91100FC0D2CF9AE2E91694E0F90647
:1033900071F2C7010E94ED0ACACF992039F2FE01ED
:1033A00031967F019E2D8F2D7601C92ED82E81CF8B
:1033B0001F93CF93DF93CDB7DEB76D970FB6F89419
:1033C000DEBF0FBECDBFAB011C821B8224E331E008
:1033D0003A8329831E8221E0BC01CE0101960E941E
:1033E0009B1611E081110CC010E0812F6D960FB675
:1033F000F894DEBF0FBECDBFDF91CF911F9108952E
:10340000CE0101960E94ED0AF0CFCF93DF93CDB7A6
:10341000DEB76D970FB6F894DEBF0FBECDBF442365
:1034200009F453C0AB01BC011C821B8284E391E010
:103430009A8389831E8221E0CE0101960E949B1609
:10344000882339F08E81843071F090E081E0911111
:1034500001C080E06D960FB6F894DEBF0FBECDBF01
:10346000DF91CF9108951F82188619861A861B86D0
:103470001C861D861E864B855C856D857E858C89A8
:103480009D89AE89BF89481759076A077B0790F461
:10349000CE0101960E943E0F0097B9F2FC012081F7
:1034A000222341F0253E39F32E3229F3838583FD13
:1034B000E2CFCBCF81E08E838D8182608D83CE0180
:1034C00001960E948C10982FC1CF81E0C3CFCF937B
:1034D000DF93CDB7DEB76D970FB6F894DEBF0FBEA2
:1034E000CDBF442311F1AB01BC011C821B8284E3DC
:1034F00091E09A8389831E8222E0CE0101960E9488
:103500009B16882321F0CE0101960E948C1091E039
:10351000811101C090E0892F6D960FB6F894DEBF3F
:103520000FBECDBFDF91CF91089591E0F4CF8F9280
:103530009F92AF92BF92EF92FF920F931F93CF9300
:10354000DF93CDB7DEB7ED970FB6F894DEBF0FBEB1
:10355000CDBF8C017B011CA21BA284E391E09AA346
:1035600089A31EA2C8010E94D81981110EC023E3AD
:10357000A701B801CE0181960E949B16811116C049
:1035800090E081E0911101C080E0ED960FB6F894D3
:10359000DEBF0FBECDBFDF91CF911F910F91FF9086
:1035A000EF90BF90AF909F908F90089581E08DA392
:1035B00084E08EA3CE0181960E94170C882301F32C
:1035C00061E0CE0181960E94550A8823C9F2CE019E
:1035D00081960E948B04FC01892B91F280E1838704
:1035E00080E2DE01119601900D928A95E1F7FE01CD
:1035F0003296CE010C9620E22193E817F907E1F705
:103600008EE2F82EF982ECADFDAD68AD79AD8AADF4
:103610009BAD6250710981099109258504C0660F2F
:10362000771F881F991F2A95D2F786849784A088D0
:10363000B188680D791D8A1D9B1D41E00E944104DF
:10364000882309F49DCF80E2FE013196A1E6B1E026
:1036500001900D928A95E1F7FA82F80185818250F6
:10366000823000F14789508D618D728DCA019B01B6
:103670003E8B2D8B9C8F8B8F80E2FE013196A1E8D3
:10368000B1E001900D928A95E1F780E490E0A0E02E
:10369000B0E08BA79CA7ADA7BEA781E00E9416044F
:1036A000982F6FCF90E080E030E020E0E1CFCF9323
:1036B000DF93D0E0C0E0CE010E948A25FE01E859E8
:1036C000FF4FE491082E000C990BE817190621F41E
:1036D0002196C731D10579F781E0679709F080E03D
:1036E000DF91CF910895FF920F931F93CF93DF93B4
:1036F000EC01F62E08811981C8010E948A25F8166E
:1037000021F06F2DC8010E949225CE01DF91CF914B
:103710001F910F91FF900895FF920F931F93CF93E6
:10372000DF9300D0CDB7DEB710E000E0F801E85934
:10373000FF4FF490C8010E948A25F81621F06F2DE2
:10374000C8010E9492250F5F1F4F0731110571F7C5
:103750001A83098361E0CE0101960E94731B88E100
:1037600090E09A83898360E0CE0101960E94731BEA
:103770000F900F90DF91CF911F910F91FF900895BF
:10378000CF93DF930E94571B811102C00E948C1BB4
:103790008AE894E00E94D20F8130D9F058F082304C
:1037A00001F1833031F11092050110920401DF9193
:1037B000CF91089561E085E894E00E94E60F87E1EB
:1037C00090E00E948A25682F85E894E00E94E60F29
:1037D000EACF61E085E894E00E94E60F88E190E09E
:1037E000F0CF61E085E894E00E94E60F609154011B
:1037F000EBCF63E085E894E00E94E60FC8E6D0E0F6
:10380000FE01649185E894E00E94E60F2196F0E0C5
:10381000CF37DF07A9F760E0D7CF1F920F920FB61F
:103820000F9211242F933F938F939F93AF93BF9346
:1038300080915A0190915B01A0915C01B0915D0172
:103840003091590123E0230F2D3758F50196A11D22
:10385000B11D2093590180935A0190935B01A0936D
:103860005C01B0935D018091550190915601A0914A
:103870005701B09158010196A11DB11D80935501CA
:1038800090935601A0935701B0935801BF91AF9107
:103890009F918F913F912F910F900FBE0F901F908E
:1038A000189526E8230F0296A11DB11DD2CF1F92B5
:1038B0000F920FB60F9211242F933F934F935F9364
:1038C0006F937F938F939F93AF93BF93EF93FF93E8
:1038D00081E693E00E94A701FF91EF91BF91AF9124
:1038E0009F918F917F916F915F914F913F912F9118
:1038F0000F900FBE0F901F9018951F920F920FB64A
:103900000F9211242F938F939F93EF93FF93E09146
:103910007103F09172038081E0917703F091780355
:1039200082FD1BC0908180917A038F5F8F732091FD
:103930007B03821741F0E0917A03F0E0EF59FC4FEE
:10394000958F80937A03FF91EF919F918F912F91A3
:103950000F900FBE0F901F9018958081F4CF1F928B
:103960000F920FB60F9211242F933F934F935F93B3
:103970006F937F938F939F93AF93BF93EF93FF9337
:1039800062E18AE894E00E94E60F10926800FF91DD
:10399000EF91BF91AF919F918F917F916F915F91C7
:1039A0004F913F912F910F900FBE0F901F90189540
:1039B0001F920F920FB60F9211242F933F934F93A4
:1039C0005F936F937F938F939F93AF93BF93EF9387
:1039D000FF93289800000000000026B169B1289AE2
:1039E00080918E0430918D0490E0AC014F5F5F4F69
:1039F0003417150609F140918C044150550B84177A
:103A0000950711F43323C1F02F70607F622B8AE891
:103A100094E00E94E60FFF91EF91BF91AF919F91CB
:103A20008F917F916F915F914F913F912F910F9067
:103A30000FBE0F901F90189588E890E090930501B5
:103A400080930401E8CF1F920F920FB60F921124BA
:103A50002F933F934F935F936F937F938F939F9396
:103A6000AF93BF93EF93FF9380EF8AB98FE187B94C
:103A7000209104013091050127FF23C0822F807F10
:103A80008BB98091530180622F70822B88B900001E
:103A9000000029980000299A00001AB880E187B92F
:103AA000FF91EF91BF91AF919F918F917F916F9116
:103AB0005F914F913F912F910F900FBE0F901F90EC
:103AC00018959091880480918904981769F085E889
:103AD00094E00E94D20F982F907F9BB99091530150
:103AE00090628F70892BD2CF80E88BB9809153017F
:103AF0008962CCCFFF920F931F93CF93DF93E1E6C0
:103B0000F3E01382128288EE93E0A0E0B0E08483B9
:103B10009583A683B78382E291E09183808385ECCD
:103B200090E09587848784EC90E09787868780EC87
:103B300090E0918B808B81EC90E0938B828B82EC78
:103B400090E0958B848B86EC90E0978B868B118E22
:103B5000128E138E148EEEEFF3E080E580831182D7
:103B6000E0E0F4E0158216821186138682E090E090
:103B7000A0E0B0E084879587A687B78713A215A633
:103B800014A684E391E093A782A717A685E090E0AE
:103B90000E943826EC0181E5F82EFA8281E590E05A
:103BA0000E943826998388831B821C82CF5F0AE893
:103BB00014E0F801C2838C2F90E00E943826F801AF
:103BC000918380831382148285E090E00E943826DE
:103BD000EC01FA8281E590E00E943826998388837F
:103BE0001B821C82CF5F05E814E0F801C2838C2F92
:103BF00090E00E943826F80191838083138214821A
:103C00008AE694E00E94140F8FE494E00E94140F5F
:103C100063E471E089E494E0DF91CF911F910F910B
:103C2000FF900C94D314CF93DF93CDB7DEB7CF586A
:103C3000D1090FB6F894DEBF0FBECDBF789484B51E
:103C4000826084BD84B5816084BD85B5826085BD98
:103C500085B5816085BD80916E00816080936E0026
:103C60001092810080918100826080938100809118
:103C700081008160809381008091800081608093C9
:103C800080008091B10084608093B1008091B00089
:103C900081608093B00080917A00846080937A0084
:103CA00080917A00826080937A0080917A008160AE
:103CB00080937A0080917A00806880937A001092D5
:103CC000C1008AB183708AB980E187B980E288B97E
:103CD00087E384B983E085B90E94FA0A809354018E
:103CE0008823A1F080E890E090930501809304017F
:103CF00041E063E471E0CE0101960E94A517BE0188
:103D00006F5F7F4F8FE494E00E949E0F809154017B
:103D1000882331F08FE494E00E94900E811106C058
:103D200086E890E0909305018093040180916E00F5
:103D30008E7F80936E00299880EF8AB98FE187B9D2
:103D40008091040190910501807F8BB980910401DD
:103D5000909105018F70806288B900000000299A57
:103D60000000299800001AB880E187B9F8948FE024
:103D7000809369008DB383608DBB82E0809368007F
:103D80008BBB80E280936C0078948DE590E08C0F83
:103D90009D1F0196C657DF4F99838883CA58D0402C
:103DA000E2E4F0E0EC0FFD1F3C96C457DF4FF983CF
:103DB000E883CC58D04088E790E08C0F9D1F019697
:103DC000C257DF4F99838883CE58D04070E8472E82
:103DD000512C612C712C8AE894E00E94D20F20E8CB
:103DE00030E0309305012093040190915401992310
:103DF00009F45EC6833108F0D6C2E82FF0E0ED5F2B
:103E0000F04E0C941026161FD820E0213F21D3211C
:103E1000F1203F22F72226232B232F2362249B24E9
:103E2000D624D924012521253B25552564E471E0BC
:103E3000CE018E5B9F4F0E94D31481E890E0909357
:103E400005018093040180914D01882321F08AE6C9
:103E500094E00E94A0138AE894E00E94D20F882385
:103E600039F0682FCE018E5B9F4F0E944314F3CF31
:103E700080E890E0909305018093040128968EAD30
:103E80009FAD2897892B39F02496EEADFFAD24978E
:103E900080818111AFC06FE474E0CE0101960E9471
:103EA000A911BE016F5F7F4F8AE694E00E949E0FCA
:103EB0000E94900E882341F18AE694E00E94080F48
:103EC0008111E9CF66E774E0CE018E5B9F4F0E94BF
:103ED0009C141A8219821C821B821E821D826FE929
:103EE00070E0CE0101960E945614BE016F5F7F4FB5
:103EF000CE018E5B9F4F0E948C12182FCE0101962F
:103F00000E949813112339F28AE694E00E94900EE1
:103F1000882309F444C166E774E0CE018E5B9F4FAD
:103F20000E949C14CE018E5B9F4F0E94AE128AE6C7
:103F300094E00E94700F182F1A8219821C821B8233
:103F40001E821D8260E970E0CE0101960E94561427
:103F5000BE016F5F7F4FCE018E5B9F4F0E948C1220
:103F6000882329F01F7EFF24F394113009F0F12CEF
:103F7000CE0101960E94981328962EAD3FAD28974A
:103F80002450310950E040E0BE016E5B7F4FCE010E
:103F900001960E94E414BE016F5F7F4FCE018E5BDD
:103FA0009F4F0E944D13CE0101960E9498132796B1
:103FB0006FAD279785E894E00E94E60F10E000E0DF
:103FC00028968EAD9FAD28970817190708F080C076
:103FD00024968EAD9FAD249760E0009721F0800F6E
:103FE000911FFC01608185E894E00E94E60F0F5F5D
:103FF0001F4FE6CF63E471E0CE0101960E94D31417
:10400000BE016F5F7F4FCE018E5B9F4F0E94C41237
:10401000182FCE0101960E949813111117C069E460
:1040200074E0CE0101960E94CA14BE016E5B7F4F00
:10403000CE0101960E943014BC01CE018E5B9F4FD1
:104040000E94B314CE0101960E949813CE018E5B9C
:104050009F4F0E94AE1268ED79E124968EAD9FAD20
:1040600024970E942819811122C01A8219821C8269
:104070001B821E821D826AE970E0CE0101960E94B9
:104080005614BE016F5F7F4FCE018E5B9F4F0E9423
:104090008C12182FCE0101960E949813111107C09F
:1040A00065E970E0CE018E5B9F4F0E94DA13249683
:1040B0006EAD7FAD249741E0CE0101960E94A51719
:1040C000BE016F5F7F4F8AE694E00E949E0F1CCF77
:1040D000809183049091840440E050E0BA010097FD
:1040E00029F0FC01438954896589768940934E0102
:1040F00050934F016093500170935101FF2009F4D8
:1041000046C0405851096109710940934E015093CE
:104110004F01609350017093510140E850E060E01E
:1041200070E00097C9F5C0904E01D0904F01E0902B
:104130005001F09051016C2D85E894E00E94E60F4B
:104140009927F7FC9A958F2D7E2D6D2D85E894E0AB
:104150000E94E60FB701992777FD9095892F85E892
:1041600094E00E94E60F6F2D77278827992785E82E
:1041700094E00E94E60F81E090E090930501809327
:10418000040180934D01CE018E5B9F4F66C1009765
:1041900051F240E050E0BA010E94BA07C4CF82E871
:1041A00090E0909305018093040110924D01EBCFB4
:1041B00080914D01882331F08AE694E00E94A0139B
:1041C00010924D0110924E0110924F011092500129
:1041D0001092510110928904109288048AE890E0AC
:1041E00022C080904E0190904F01A0905001B0905D
:1041F0005101082DF1E48F169104A104B1040CF0D3
:1042000000E4002371F010E0809183049091840415
:10421000009771F48AE694E00E94A50E181619061C
:104220009CF383E890E09093050180930401BBC068
:10423000A801BE016E5F7F4F0E944E097C0100976E
:1042400049F37CF38983BE016F5F7F4F81E08E0D60
:104250000E941111C701FF0CAA0BBB0B881A990A07
:10426000AA0ABB0A80924E0190924F01A09250017F
:10427000B0925101109205011092040194C0E99688
:104280001FAEE9976091490470914A0441E0CE0164
:10429000835A9F4F0E94A517CE018E5B9F4F0E94AD
:1042A000140F30E1E32E31E0F32E00E810E0BE0100
:1042B000635A7F4FCE0101960E94A911BE016F5F24
:1042C0007F4FCE018E5B9F4F0E949E0F0E94900EEB
:1042D000882309F45DC026968EAD9FAD26979C83FA
:1042E0008B832A968CAD9DADAEADBFAD2A978D83E5
:1042F0009E83AF83B8872E968CAD9DADAEADBFAD1E
:104300002E9789879A87AB87BC87FA82E9828DE0EE
:10431000C457DF4FE881F981CC58D040DE011D96AB
:1043200001900D928A95E1F76D968EAD9FAD6D97D8
:104330009B8F8A8FC257DF4F68817981CE58D040DA
:10434000CE0101960E94DF12CE018E5B9F4F0E942C
:10435000A013BE0168587F4F82E10E941111109294
:104360000501109204018AE894E00E94D20F109394
:10437000050100930401843009F499CF87E890E0A7
:10438000909305018093040110928904109288048F
:1043900084E890E09093050180930401CE01835A54
:1043A0009F4F0E94A01380E090E0892B09F413CD69
:1043B0000E949301882309F409CD0E94000006CDD4
:1043C00081E890E09093050180930401CE01835A27
:1043D0009F4F0E947A15CE018E5B9F4F0E94140F53
:1043E0006F966EAD7FAD6F9741E0CE0101960E9452
:1043F000A517BE016F5F7F4FCE018E5B9F4F0E945E
:104400009E0F0E94900E882359F1CE018E5B9F4F24
:104410000E94080F882321F18FE494E00E94900EFF
:10442000882321F08FE494E00E94A013BE016E5B0C
:104430007F4F8FE494E00E949E0FBE01635A7F4F2E
:1044400089E494E00E94B3148CE890E09093050115
:1044500080930401CE01835A9F4F0E949813A3CFEB
:10446000CE018E5B9F4F0E94900E882329F0CE01D3
:104470008E5B9F4F0E94A0138DE890E0E7CF64E42D
:1044800071E0CE0188589F4F0E94D31481E890E0DC
:1044900090930501809304018AE894E00E94D20F72
:1044A000882339F0682FCE0188589F4F0E9443140B
:1044B000F3CF63E471E0CE0101960E94D314BE01F4
:1044C0006F5F7F4FCE0188589F4F0E94C412182FF4
:1044D000CE0101960E949813111117C069E474E08F
:1044E000CE0101960E94CA14BE0168587F4FCE01CA
:1044F00001960E943014BC01CE0188589F4F0E9443
:10450000B314CE0101960E94981380E890E0909336
:10451000050180930401CE018E5B9F4F0E94140F12
:10452000EA966EAD7FADEA9741E0CE0101960E941A
:10453000A517BE016F5F7F4FCE018E5B9F4F0E941C
:104540009E0F0E94900E882309F44AC06E961FAEFB
:104550006E9726968EAD9FAD26979C838B832A9669
:104560008CAD9DADAEADBFAD2A978D839E83AF83DD
:10457000B8872E968CAD9DADAEADBFAD2E97898719
:104580009A87AB87BC8780E191E09A8389838DE02D
:10459000E2E4F0E0EC0FFD1F3C96DE011D96019079
:1045A0000D928A95E1F76D968EAD9FAD6D979B8FBD
:1045B0008A8FC657DF4F68817981CA58D040CE01B3
:1045C00001960E94DF12BE01635A7F4F0E941111B3
:1045D0001092050110920401CE0188589F4F3DCFE3
:1045E00082E890E09093050180930401F5CF00915B
:1045F0004D0410914E040F34110510F00FE410E03B
:10460000602F85E894E00E94E60FF12CE12CE01683
:10461000F1060CF02FCE80914D0490914E04E816D7
:10462000F90690F48091490490914A04009761F052
:104630008E0D9F1DFC01608185E894E00E94E60FCD
:10464000FFEFEF1AFF0AE3CF60E0F6CF10925301BD
:104650008EE890E0E8CD80E180935301F9CF64E4E7
:1046600071E0CE018E5B9F4F0E94D3148AE894E0E4
:104670000E94D20FF12CE12C082F10E0E016F10679
:1046800094F42FE3E216F10471F08AE894E00E94BA
:10469000D20F682FCE018E5B9F4F0E9443148FEF85
:1046A000E81AF80AEBCF28968EAD9FAD2897892B94
:1046B00039F02496EEADFFAD24978081811107C0BB
:1046C0006EEA70E0CE018E5B9F4F0E9456148AE81E
:1046D00094E00E94D20F809352012896EEACFFAC7A
:1046E0002897E114F10409F077C069EA70E0CE017F
:1046F0008E5B9F4F0E94DA1363E471E0CE01019656
:104700000E94D314BE016F5F7F4FCE018E5B9F4F1F
:104710000E94C412182FCE0101960E949813111105
:1047200017C069E474E0CE0101960E94CA14BE016C
:104730006E5B7F4FCE0101960E943014BC01CE010A
:104740008E5B9F4F0E94B314CE0101960E94981376
:104750008AE694E00E94900E882321F08AE694E095
:104760000E94A01324966EAD7FAD249747E1CE0141
:1047700001960E94A517BE016F5F7F4F8AE694E005
:104780000E949E0F8AE694E00E94900E882309F40E
:1047900096C060915201862F8F7E813071F48AE637
:1047A00094E00E94F20E0FE710E060E08AE694E0E9
:1047B0000E94F20E01501109C1F710924E011092A1
:1047C0004F0110925001109251018FE890E09093A8
:1047D000050180930401D7CC2496EEADFFAD24975C
:1047E000EE0DFF1DD080108224960EAD1FAD2497D4
:1047F0006EE270E0C8010E9475280E0D1F1DF801C1
:10480000D082009709F471CF24962EAD3FAD249746
:10481000821B930B019609F468CF1A8219821C82BD
:104820001B821E821D8264EA70E0CE0101960E9406
:10483000561428960EAD1FAD28978D819E81680174
:10484000C81AD90A009759F10115110541F1081745
:10485000190728F1C016D10620F0680121E0C21A1C
:10486000D1082496AEACBFAC249729803A80C5010C
:10487000EE24EA94FE2C45018C0C9D1C88169906AA
:1048800088F0B1010E948028009761F09C012A19EC
:104890003B09C216D30608F079010196EFCFEE244A
:1048A000EA94FE2CCE0101960E949813045011093F
:1048B000E016F10609F420CF109252011DCF80E9D5
:1048C00090E085CF8AE894E00E94D20FC82EF12CA8
:1048D000E12CDD24D394082F10E0E016F10674F4E7
:1048E0008AE894E00E94D20F682F8AE694E00E9442
:1048F000F20ED8228FEFE81AF80AEFCF80914E011E
:1049000090914F01A0915001B09151018C0D911DDA
:10491000A11DB11D80934E0190934F01A0935001B2
:10492000B093510191E0D91619F082E990E07BCC67
:1049300081E990E078CC8AE694E00E94900E88238A
:1049400091F180915201982F9F7E913039F58130FD
:1049500009F560914E0170914F0180915001909145
:104960005101A30192010E94F12500E810E0061B0D
:1049700011090038110571F0F12CE12CE016F10657
:104980004CF460E08AE694E00E94F20EEFEFEE1A3B
:10499000FE0AF4CF8AE694E00E949C0E8AE694E038
:1049A0000E94A0131BCC8BE890E03DCC0E94C01B62
:1049B000FACC0E94571B811102C00E948C1B8AE80E
:1049C00094E00E94D20F882329F0813099F089E980
:1049D00090E029CC8AE894E00E94D20F27E130E0F1
:1049E0003A832983682FCE0101960E94731B8AE9BE
:1049F00090E019CC8AE894E00E94D20F28E130E0E0
:104A0000EFCFCE0101960E947A1568ED79E1898198
:104A10009A810E942819811111C067E97AE1898180
:104A20009A810E942819882349F083E990E09093A5
:104A3000050180930401CE0101960FCD84E990E039
:104A4000F6CFCE0101960E947A1568ED79E1898151
:104A50009A810E942819882359F065E07AE18981BA
:104A60009A810E942819882319F085E990E0DFCF08
:104A700086E990E0DCCFCE0101960E947A1568EDC0
:104A800079E189819A810E942819882359F067E683
:104A90007AE189819A810E942819882319F087E98F
:104AA00090E0C5CF88E990E0C2CF0E9499187BCCF6
:104AB0008D3009F47BCF8231C1F38FEF90E090937A
:104AC000050180930401F89410928E0410928D04D5
:104AD000789469CC89E494E00E94981380918504CD
:104AE000909186040E94D42680918A0490918B0430
:104AF0000C94D426FB01DC0105900D920020E1F717
:104B00000895FC0105900020E9F7809590958E0F9F
:104B10009F1F0895F999FECF92BD81BDF89A9927FC
:104B200080B50895262FF999FECF1FBA92BD81BD99
:104B300020BD0FB6F894FA9AF99A0FBE019608951F
:104B40000E94E225A59F900DB49F900DA49F800D1B
:104B5000911D112408952F923F924F925F926F9270
:104B60007F928F929F92AF92BF92CF92DF92EF92FD
:104B7000FF920F931F93CF93DF93CDB7DEB7CA1B7E
:104B8000DB0B0FB6F894DEBF0FBECDBF09942A88A9
:104B9000398848885F846E847D848C849B84AA8451
:104BA000B984C884DF80EE80FD800C811B81AA81DE
:104BB000B981CE0FD11D0FB6F894DEBF0FBECDBFA9
:104BC000ED010895A29FB001B39FC001A39F700D96
:104BD000811D1124911DB29F700D811D1124911D05
:104BE0000895052E97FB1EF400940E94082657FD99
:104BF00007D00E94162607FC03D04EF40C9408261A
:104C000050954095309521953F4F4F4F5F4F0895F8
:104C100090958095709561957F4F8F4F9F4F089528
:104C2000EE0FFF1F0590F491E02D0994A1E21A2EDA
:104C3000AA1BBB1BFD010DC0AA1FBB1FEE1FFF1F40
:104C4000A217B307E407F50720F0A21BB30BE40B90
:104C5000F50B661F771F881F991F1A9469F76095D7
:104C60007095809590959B01AC01BD01CF01089591
:104C70000F931F93CF93DF938230910510F482E05E
:104C800090E0E0919104F091920430E020E0B0E0F7
:104C9000A0E0309799F42115310509F44AC0281B8A
:104CA000390B24303105D8F58A819B816115710556
:104CB00089F1FB0193838283FE0111C04081518100
:104CC0000281138148175907E0F04817590799F4F2
:104CD000109761F012960C93129713961C933296CC
:104CE000CF01DF91CF911F910F910895009391040F
:104CF00010939204F4CF2115310551F04217530758
:104D000038F0A901DB019A01BD01DF01F801C1CF33
:104D1000EF01F9CF9093920480939104CDCFFE01DF
:104D2000E20FF31F81939193225031093983288335
:104D3000D7CF20918F0430919004232B41F4209100
:104D40000801309109013093900420938F04209141
:104D50000601309107012115310541F42DB73EB709
:104D600040910A0150910B01241B350BE0918F04F7
:104D7000F0919004E217F307A0F42E1B3F0B2817C5
:104D8000390778F0AC014E5F5F4F2417350748F0C4
:104D90004E0F5F1F5093900440938F048193919323
:104DA0009FCFF0E0E0E09CCFCF93DF930097E9F056
:104DB000FC01329713821282A0919104B091920467
:104DC000ED0130E020E01097A1F420813181820FC5
:104DD000931F20918F04309190042817390709F010
:104DE00061C0F0939004E0938F04DF91CF91089518
:104DF000EA01CE17DF07E8F54A815B819E01411584
:104E00005105B1F7E901FB83EA8349915991C40F38
:104E1000D51FEC17FD0761F4808191810296840F04
:104E2000951FE90199838883828193819B838A837B
:104E3000F0E0E0E012968D919C9113970097B9F500
:104E40002D913C911197CD010296820F931F2091D5
:104E50008F04309190042817390739F6309751F5AF
:104E60001092920410929104B0939004A0938F0436
:104E7000BCCFD383C28340815181840F951FC81753
:104E8000D90761F44E5F5F4F88819981480F591FA0
:104E9000518340838A819B819383828321153105CD
:104EA00009F0B0CFF0939204E09391049ECFFD01FE
:104EB000DC01C0CF13821282D7CFB0E0A0E0E3E6DE
:104EC000F7E20C94AD258C01009751F4CB010E94C0
:104ED00038268C01C801CDB7DEB7E0E10C94C925B6
:104EE000FC01E60FF71F9C0122503109E217F3077E
:104EF00008F49DC0D901CD91DC911197C617D70751
:104F000098F0C530D10530F3CE0104978617970786
:104F100008F3C61BD70B2297C193D1936D937C9353
:104F2000CF010E94D426D6CF5B01AC1ABD0A4C013A
:104F30008C0E9D1EA0919104B0919204512C412C95
:104F4000F12CE12C109731F580918F049091900411
:104F50008815990509F05CC04616570608F058C038
:104F60008091060190910701009741F48DB79EB79B
:104F700040910A0150910B01841B950BE817F9072A
:104F800008F055C0F0939004E0938F04F901718309
:104F90006083A0CF8D919C91119712966C9012977F
:104FA00013967C901397A815B90559F56C0142E04A
:104FB000C40ED11CCA14DB0420F1AC014A195B09F0
:104FC000DA011296159780F06282738251834083D2
:104FD000D9016D937C93E114F10471F0D70113961C
:104FE000FC93EE93129776CF22968C0F9D1FF901BA
:104FF00091838083F301EFCFF0939204E0939104C7
:1050000069CF4816590608F42C017D01D3019ACFC7
:10501000CB010E9438267C01009749F0AE01B8010F
:105020000E943428C8010E94D426870153CF10E083
:1050300000E050CF81E090E0F8940C949A28911110
:10504000089581568A5108F4805285580895FB01CD
:10505000DC0104C08D910190801921F44150504031
:10506000C8F7881B990B0895FB01DC0102C0019071
:105070000D9241505040D8F70895FC018191861758
:1050800021F08823D9F7992708953197CF01089502
:10509000FB01DC018D91019080190110D9F3990B6E
:1050A0000895FB01DC0101900D920020E1F70895C5
:1050B000FB01DC014150504030F08D91019080198E
:1050C00019F40020B9F7881B990B0895FB01DC0146
:1050D0004150504048F001900D920020C9F701C0A6
:1050E0001D9241505040E0F70895FC0181E090E0AE
:1050F0000190061609F4CF010020D1F70197089519
:10510000FB0151915523A9F0BF01DC014D914517D9
:105110004111E1F759F4CD010190002049F04D9182
:1051200040154111C9F3FB014111EFCF81E090E03F
:105130000197089510E0C6E8D0E004C0FE010E9487
:0E51400010262196C738D107C9F7F894FFCF83
:10514E00FFFFFFFF810000009304800000000000BD
:10515E00F20ED50EC50E9C0EA50E700F7A0F000026
:10516E000000C90129015601160287016501790166
:10517E00000000002F0E29018F0A28012E434153F3
:06518E00002E2E2F000090
:00000001FF
