:100000000C94B3020C9412210C94C7200C94DB02C4
:100010000C949E200C94DB020C94DB020C94DB020B
:100020000C94DB020C94DB020C94DB020C94DB02DC
:100030000C94DB020C94DB020C94DB020C94DB02CC
:100040000C94FC1F0C94DB020C946C200C94462046
:100050000C94DB020C94DB020C94DB020C94DB02AC
:100060000C94DB020C94DB02436F6E766572746550
:100070006420706174683A2027006166746572209C
:10008000737562737472696E673A2027002C207052
:100090006F733A20007374617274506F733A20006A
:1000A000507265636F6E766572746564206E616D03
:1000B000653A20004344207061746820617272695F
:1000C0007665643A2000696E76616C6964007661D9
:1000D0006C69640066616C736500747275650072AA
:1000E0006F6F74206469723A2000534420696E690E
:1000F0007469616C697A65643A20005344206361D5
:1001000072642072656D6F7665642E002C205049F4
:100110004E433A2024002C2050434943523A202495
:100120000068616E646C65434450696E4368616E3B
:10013000676544657465637465642E205043494661
:10014000523A202400706F733A2000494463686576
:10015000636B206C656E3A2000466F756E64207686
:10016000616C75653A20004E616E6F534420417298
:100170006475696E6F2066772076302E33320047C3
:10018000657474696E6720706172616D6574657203
:100190002049443A2000454550524F4D2069732074
:1001A0006E6F7420696E697469616C697A65642028
:1001B0007965742E007C3C3E5E2B3D3F2F5B5D3BA2
:1001C0002C2A225C00696E76616C69640076616C31
:1001D00069640050494E433A200066616C736500C3
:1001E0007472756500726F6F74206469723A2000D2
:1001F000534420696E697469616C697A65643A2058
:10020000004E616E6F534420736574757028292009
:100210006578656375746564210050494E433A20E2
:10022000006D6B646972206E6F6B3A20006D6B64B9
:100230006972206F6B3A200056616C75653A200038
:10024000506172616D206E6F7420666F756E642EE2
:100250002E0053657474696E6720706172616D65FC
:100260007465722049443A2000454550524F4D2054
:100270006973206E6F7420696E697469616C697A44
:100280006564207965742E004E6F2066696C652068
:10029000746F20636C6F73652E2E007265636569E1
:1002A000766520646F6E652C2072657456616C3AB9
:1002B0002000646174613A200073697A6520746F6C
:1002C00020726563656976653A20002E43415300CC
:1002D0002E4341530066696C6554797065206172E4
:1002E00072697665643A20004E4F4E414D452E436B
:1002F00041530066696C654E616D6520617272697B
:100300007665643A20002C2063757272656E7444C1
:100310006972206C656E3A200063757272656E7446
:100320004469723A20006D732C20636F756E743AC5
:1003300020006D732C204C6173742064656C6179AE
:100340003A200046697273742064656C61793A20C2
:10035000004C69737420646F6E65004E6F204143DA
:100360004B5F4C49535420617272697665642C204E
:10037000696E73746561643A2000454F462072656A
:10038000616368656421002052656D61696E696E04
:10039000672073697A653A00205175657565207329
:1003A000697A6528293A2000436F6E74656E74205F
:1003B000616464656420746F206F75747075745126
:1003C000756575653A200046696C652062756666DC
:1003D000657220726561642C206C656E3A20002C79
:1003E00020617661696C61626C653A20002C207234
:1003F000656164206C656E3A2000546F205265611F
:10040000643A20004E6F2066696C6520746F20632B
:100410006C6F73652E2E0046696C6520636C6F737C
:10042000656421006E6F7420666F756E64004669A6
:100430006C652073697A6520746F20545643206977
:10044000733A20004E6F7420612043415320666947
:100450006C652E0020286C656E6774683A20004633
:10046000696C6520666F756E642C2073656E6469B7
:100470006E67206261636B207468652066696C65D5
:100480004E616D653A20002E4341530066696C65EC
:100490004E616D653A200046696C6520746F206F6F
:1004A00070656E3A20002E434153002E43415300A5
:1004B00046696C6520666F756E643A20002E434174
:1004C000530052656365697665642066696C654EA4
:1004D000616D653A202700756E6B6E6F776E2063D5
:1004E0006F6D6D616E643A20004E657720636F6DAD
:1004F0006D616E643A20004E6F2053442063617238
:100500006420696E7365727465642C20636D643A4F
:1005100020000000000800020100000304070000A2
:1005200000000000000000000000250028002B0053
:1005300000000000240027002A000404040404042E
:100540000404020202020202030303030303010282
:100550000408102040800102040810200102040851
:10056000102069216B2B11241FBECFEFD8E0DEBF16
:10057000CDBF24E0ACE6B1E001C01D92A93BB207BB
:10058000E1F711E0A0E0B1E0E0E5FDE502C0059093
:100590000D92AC36B107D9F712E0C2EBD2E004C03D
:1005A0002197FE010E94332CC13BD107C9F70E945D
:1005B00002220C949B2E0C94000090E0FC01E25B64
:1005C000FA4F2491865C9A4FFC018491882399F01C
:1005D00090E0880F991FFC01E05DFA4FA591B4915E
:1005E000FC01EA5DFA4F859194918FB7F894EC91F4
:1005F000E22BEC938FBF089590E0FC01EE5EFA4F82
:100600002491FC01E25BFA4F3491FC01E65CFA4F65
:10061000E491EE23C9F0222339F0233001F1A8F44C
:10062000213019F1223029F1F0E0EE0FFF1FEA5DD1
:10063000FA4FA591B4918FB7F894EC91611126C04F
:1006400030953E233C938FBF08952730A9F0283082
:10065000C9F0243049F7809180008F7D03C08091DC
:1006600080008F7780938000DFCF84B58F7784BD43
:10067000DBCF84B58F7DFBCF8091B0008F778093E7
:10068000B000D2CF8091B0008F7DF9CF3E2BDACF72
:100690002FB7F8946091800170918101809182015F
:1006A000909183012FBF08950895AF92BF92CF928A
:1006B000DF92EF92FF920F931F93CF93DF936C0122
:1006C0007B018B01040F151FEB015E01AE18BF0803
:1006D000C017D10759F06991D601ED91FC910190B5
:1006E000F081E02DC6010995892B79F7C501DF91CD
:1006F000CF911F910F91FF90EF90DF90CF90BF901F
:10070000AF900895FC01448155816081718187E833
:1007100093E00C945503FC01538D448D252F30E05C
:10072000842F90E0821B930B541710F0CF960895FE
:1007300001970895FC01918D828D981761F0A28D2B
:10074000AE0FBF2FB11D5D968C91928D9F5F9F73F1
:10075000928F90E008958FEF9FEF0895FC01918DA7
:10076000828D981731F0828DE80FF11D858D90E014
:1007700008958FEF9FEF0895FC01918D228D892FB1
:1007800090E0805C9F4F821B91098F739927089599
:1007900087E893E00E94BC0321E0892B09F420E064
:1007A000822F089580E090E0892B29F00E94C803F1
:1007B00081110C9400000895FC01A48DA80FB92F9D
:1007C000B11DA35ABF4F2C91848D90E001968F7379
:1007D0009927848FA689B7892C93A089B1898C9198
:1007E000837080648C93938D848D981306C00288E7
:1007F000F389E02D80818F7D80830895EF92FF92B1
:100800000F931F93CF93DF93EC0181E0888F9B8D33
:100810008C8D98131AC0E889F989808185FF15C0ED
:100820009FB7F894EE89FF896083E889F989808110
:100830008370806480839FBF81E090E0DF91CF91DF
:100840001F910F91FF90EF900895F62E0B8D10E001
:100850000F5F1F4F0F731127E02E8C8D8E110CC070
:100860000FB607FCFACFE889F989808185FFF5CFBB
:10087000CE010E94DC03F1CFEB8DEC0FFD2FF11DBB
:10088000E35AFF4FF0829FB7F8940B8FEA89FB89F8
:1008900080818062CFCF0F931F93CF93DF938C0122
:1008A000D0E0C0E0F801EC0FFD1F6491662341F039
:1008B00087E893E00E94FE03892B11F02196F2CF86
:1008C000CE01DF91CF911F910F910895CF93DF93C8
:1008D000EC01888D8823B9F0AA89BB89E889F98958
:1008E0008C9185FD03C0808186FD0DC00FB607FC8D
:1008F000F7CF8C9185FFF2CF808185FFEDCFCE01C0
:100900000E94DC03E9CFDF91CF9108958FB7F8946F
:1009100080916D018FBF089561E0FC0184810E9488
:10092000FC0280916C01811110926C0108958EBDC2
:1009300000000DB407FEFDCF8EB508958FEF0C9427
:1009400097040F931F93CF93DF93EC010E9448030A
:100950008B010E949E048F3F69F00E944803601B38
:10096000710B6C177D07A8F380E0DF91CF911F9189
:100970000F91089581E0F9CF8CBD9DBD0895CF936F
:10098000DF93EC0180916C01811109C081E08093BB
:100990006C0180912404909125040E94BC0460E0C5
:1009A0008C81DF91CF910C94FC028F929F92AF9239
:1009B000BF92FF920F931F93CF93DF93EC01F62E1C
:1009C00049015A018E81882389F08F8198859C0185
:1009D0002F5F3F4F38872F838230924018F40E9458
:1009E0009E04F3CFCE010E948C041E82CE010E9491
:1009F000BF048CE291E00E94A1048F2D80640E94CC
:100A0000970408E110E0D501C401002E04C0B6959A
:100A1000A795979587950A94D2F70E949704085056
:100A20001109083F8FEF180771F785E9FF2021F0C2
:100A300028E087E8F2128FEF0E94970410E00E94EE
:100A40009E048A8787FF04C01F3F11F01F5FF7CF06
:100A5000DF91CF911F910F91FF90BF90AF909F902A
:100A60008F900895AF92BF92CF92DF92EF92FF9254
:100A70000F931F93CF93DF93EC016901C801820F9D
:100A8000931F8130924050F58E81882379F08881C0
:100A90009981AA81BB8184179507A607B70731F40E
:100AA0008F819885C816D90608F042C048835983BB
:100AB0006A837B838B85833039F089E0440F551F2F
:100AC000661F771F8A95D1F79A01AB0161E1CE01CC
:100AD0000E94D504882389F083E08D83CE010E9493
:100AE0008C0480E0DF91CF911F910F91FF90EF90E8
:100AF000DF90CF90BF90AF9008950E9448035B01B4
:100B00000E949E048A878F3F69F40E9448036A19F5
:100B10007B096D327140A0F38FE08D83CE010E947E
:100B20008C04DCCF8E3F89F418861F8281E08E838F
:100B30008F8198858C159D0550F40E949E048F81AD
:100B40009885019698878F83F3CF8DE0E6CF670174
:100B5000E00EF11E0E949E04F60181936F01EE15D6
:100B6000FF05C1F78F819885080F191F18870F831C
:100B70008985882319F001151240A0F08E81882301
:100B800089F08F8198859C012F5F3F4F38872F8395
:100B90008230924018F40E949E04F3CFCE010E944E
:100BA0008C041E8281E09ECFCF92DF92EF92FF9263
:100BB0000F93CF93DF93EC01690182E14115510559
:100BC0006105710599F08B85833039F089E0440F18
:100BD000551F661F771F8A95D1F79A01AB0168E10F
:100BE000CE010E94D504882319F084E08D832DC0A6
:100BF0008EEF0E94970476018EEFD81AF70181914B
:100C00007F010E949704EC14FD04C1F78FEF0E944E
:100C100097048FEF0E9497040E949E048A878F7129
:100C2000853071F4011116C0CE010E948C0481E060
:100C3000DF91CF910F91FF90EF90DF90CF900895CB
:100C400081E18D83CE010E948C04CE010E948C0430
:100C500080E0EECF88E592E00E94A104811102C0FD
:100C600085E1C4CF20E030E0A9016DE0CE010E9413
:100C7000D504882311F084E1B9CF0E949E0481112C
:100C8000FACFD2CF0F9340916F01509170016091D4
:100C9000710170917201411551056105710599F05D
:100CA000082F27E831E080918501909186010E940C
:100CB000D405882349F010926F01109270011092B0
:100CC00071011092720181E00F9108950F93CF93FB
:100CD000C82F80916E01811105C0C1E08C2FCF918A
:100CE0000F9108954091000150910101609102011E
:100CF000709103010C2F27E831E0809185019091DC
:100D000086010E94D405811102C0C0E0E7CFCC2348
:100D100021F381E00E9442068823B9F310926E010C
:100D2000DDCF8F929F92AF92BF92EF92FF920F937F
:100D30001F93CF934B015C01C42F809100019091D0
:100D40000101A0910201B091030188159905AA053E
:100D5000BB0551F181E00E94660681110BC080E065
:100D6000CF911F910F91FF90EF90BF90AF909F9008
:100D70008F90089587E8E82E81E0F82E00E012E0D9
:100D800030E020E0B501A4018091850190918601B9
:100D90000E943205882319F380920001909201018C
:100DA000A0920201B092030140916E014C2B40933E
:100DB0006E0181E0D5CFCF93DF93EC016E857F8507
:100DC0008889998941E00E949106882351F08A8997
:100DD00020E2829FC001112489579E4FDF91CF915D
:100DE000089590E080E0FACF8F929F92AF92BF92E9
:100DF000CF92DF92EF92FF92CF93C82F86E294E0DA
:100E00009093860180938501CC2309F478C040E05B
:100E100060E070E0CB010E94910681110BC080E080
:100E2000CF91FF90EF90DF90CF90BF90AF909F90C9
:100E30008F9008952C2F2150330BC90144E0880F67
:100E4000991F4A95E1F789579E4FFC01E254FE4FE6
:100E500020812F7721F73C964081518162817381F7
:100E60004436510561057105D0F28A539E4FFC014D
:100E7000C080D180E280F380C114D104E104F10488
:100E800071F240E0C701B6010E949106882339F251
:100E900080919201909193018115924009F0BFCF0A
:100EA000A0919701AA2309F4BACF6091950170919E
:100EB00096016115710509F4B2CF209194012223A6
:100EC00009F4ADCFA09344042093360490E080E071
:100ED00030E0E1E0F0E0C82FAF01082E02C0440F7F
:100EE000551F0A94E2F72417350769F041E0480FCF
:100EF00001968930910579F740933F0490CFC12C3A
:100F0000D12C7601BECF80933F0420919D0130917A
:100F10009E0150E040E02115310541F42091AB01E4
:100F20003091AC014091AD015091AE012093370456
:100F3000309338044093390450933A0446015701E2
:100F4000860E971EA11CB11C809245049092460407
:100F5000A0924704B0924804E0919801F091990161
:100F6000F0934B04E0934A04B0E00E94A12BDC0113
:100F7000CB01880D991DAA1DBB1D80934C04909335
:100F80004D04A0934E04B0934F0425E0EE0FFF1FD5
:100F90002A95E1F7E150FE4FEF2FFF27E6958E0FE0
:100FA0009F1FA11DB11D8093400490934104A09305
:100FB0004204B093430480909A0190909B01B12C1D
:100FC000A12C8114910441F48090A7019090A80174
:100FD000A090A901B090AA01C81AD90AEA0AFB0A8E
:100FE000C80CD91CEA1CFB1C04C0F694E794D794E7
:100FF000C794CA95D2F7C0923B04D0923C04E092C9
:101000003D04F0923E048CE025EFC2162FE0D2069C
:10101000E104F104C8F080E135EFC3163FEFD306D9
:10102000E104F10488F08091B3019091B401A091A2
:10103000B501B091B60180934C0490934D04A093F8
:101040004E04B0934F0480E28093490481E0E8CEDF
:101050004F925F926F927F928F929F92AF92BF92C8
:10106000CF92DF92EF92FF920F931F93CF93DF9374
:10107000EC01423051056105710590F480E0DF918B
:10108000CF911F910F91FF90EF90DF90CF90BF9085
:10109000AF909F908F907F906F905F904F9008954A
:1010A00089859A85AB85BC850196A11DB11D8417E4
:1010B0009507A607B70710F3CB88DC88ED88FE8874
:1010C0008F89803109F042C0BB27A72F962F852F2B
:1010D000480159012A013B01C80ED91EEA1EFB1E18
:1010E0008091000190910101A0910201B091030152
:1010F000C816D906EA06FB0699F58F898031C1F535
:10110000B301A201552766277727440F551F49577A
:101110005E4FFA019182808280916E01816080939E
:101120006E018A89823080F08D819E81AF81B88581
:101130008C0D9D1DAE1DBF1D80936F01909370019E
:10114000A0937101B093720181E099CFDB01CA01D4
:10115000E7E0B695A79597958795EA95D1F7B8CF2B
:1011600040E0C701B6010E9491068111C6CF86CF2B
:10117000B301A2014F77552766277727440F551FE4
:10118000440F551F49575E4FFA0180829182A28217
:10119000B382C2CF8F929F92AF92BF92CF92DF92D3
:1011A000EF92FF920F931F93CF93DF93FC01818502
:1011B0009285A385B4850196A11DB11D841795075D
:1011C000A607B70770F480E0DF91CF911F910F91D0
:1011D000FF90EF90DF90CF90BF90AF909F908F9057
:1011E000089583889488A588B6888789803189F591
:1011F000BB27A72F962F852FE9016A017B018F015D
:10120000BC01CD01680D791D8A1D9B1D80900001D8
:1012100090900101A0900201B090030186169706FC
:10122000A806B90601F5F8018789803111F5DD249A
:10123000EE24FF24F601EE0FFF1FE957FE4F8081D9
:101240009181B0E0A0E088839983AA83BB8381E089
:10125000BBCFDB01CA01C7E0B695A79597958795E7
:10126000CA95D1F7C9CF40E00E9491068111DBCF2A
:10127000AACFE894C7F8DD24EE24FF24F601EE0F90
:10128000FF1FEE0FFF1FE957FE4F80819181A28162
:10129000B381BF70D8CF4F925F926F927F92AF921F
:1012A000BF92CF92DF92EF92FF920F931F93CF9353
:1012B000DF9300D000D0CDB7DEB78C0149835A83CD
:1012C0006B837C835901C12CD12C7601412C82E0A7
:1012D000582E612C712C49815A816B817C819E0131
:1012E0002F5F3F4FC8010E94CA08882339F1F801D7
:1012F0008585A301920104C0220F331F441F551F8F
:101300008A95D2F7DA01C901C80ED91EEA1EFB1E62
:1013100049815A816B817C818789803111F188EF05
:101320009FEFAFEFBFE0481759076A077B0798F2B6
:10133000F501C082D182E282F38281E00F900F90AA
:101340000F900F90DF91CF911F910F91FF90EF9031
:10135000DF90CF90BF90AF907F906F905F904F9055
:10136000089588EF9FEFA0E0B0E0DDCFCF93DF934B
:10137000FC012581222321F080E0DF91CF910895A7
:10138000EC0180914904803159F582E08583178A08
:10139000108E118E128E80914A0490914B04B0E011
:1013A000A0E025E0880F991FAA1FBB1F2A95D1F73F
:1013B000838B948BA58BB68B82E394E09C8F8B8F71
:1013C00081E08C831E821F82188619861A861B86EE
:1013D0001C861D861E861F86188A198A1A8ACDCFFA
:1013E000803251F683E0858340914C0450914D0446
:1013F00060914E0470914F04478B508F618F728FB4
:101400009F012D5E3F4F82E394E00E944B098111C2
:10141000D3CFB2CF8F929F92AF92BF92CF92DF92F3
:10142000EF92FF920F931F93CF93DF93EC018D8187
:1014300081110EC080E0DF91CF911F910F91FF903D
:10144000EF90DF90CF90BF90AF909F908F900895D6
:101450000B891C892D893E89041715072607370734
:1014600048F34A015B01823031F48A869B86AC8660
:10147000BD8681E0E0CF81149104A104B10449F458
:101480001E821F82188619861A861B861C861D8658
:10149000F0CF0A851B852C853D85EB8DFC8D8585E0
:1014A00090E00996B901A8014150510961097109FB
:1014B000082E04C076956795579547950A94D2F7FC
:1014C00075016401E1E0CE1AD108E108F10804C019
:1014D000F694E794D794C7948A95D2F7C416D506A4
:1014E000E606F70620F0012B022B032B11F58F895E
:1014F000988DA98DBA8D8E839F83A887B9878E0119
:101500000A5F1F4FC114D104E104F10409F4ADCF07
:101510004E815F816885798598018B8D9C8D0E94B5
:10152000CA0891E0C91AD108E108F1088111EACF8F
:1015300081CFC41AD50AE60AF70AE1CF3F924F924B
:101540005F926F927F928F929F92AF92BF92CF9253
:10155000DF92EF92FF920F931F93CF93DF93CDB75C
:10156000DEB72C970FB6F894DEBF0FBECDBF5C017F
:10157000DC015B968D909C905C9716964D905D90EB
:101580006D907C901997411451046104710409F421
:1015900068C0BFEF4B1A5B0A6B0A7B0A312CF4015F
:1015A00081859285A385B4859C01AD012F5F3F4F56
:1015B0004F4F5F4F29873A874B875C8773016201E2
:1015C0001D821E821F821886F40181859285A38563
:1015D000B4852D813E814F815885281739074A07E8
:1015E0005B0708F056C089859A85AB85BC858C154C
:1015F0009D05AE05BF0550F482E0C82ED12CE12C2C
:10160000F12C92E0492E512C612C712C9E012F5F00
:101610003F4FB701A601C4010E94CA088823C9F13F
:1016200089819A81AB81BC81892B8A2B8B2B09F113
:10163000260137019FEF491A590A690A790A2D8153
:101640003E814F8158852F5F3F4F4F4F5F4F2D8316
:101650003E834F8358873FEFC31AD30AE30AF30A46
:10166000B3CFF4014080518062807380332433947F
:1016700096CFC414D504E604F70409F70FEF1FEF63
:101680002FEF3FE0B701A601C4010E942808811195
:1016900019C080E02C960FB6F894DEBF0FBECDBF08
:1016A000DF91CF911F910F91FF90EF90DF90CF903E
:1016B000BF90AF909F908F907F906F905F904F9072
:1016C0003F900895D50116964D915D916D917C9155
:1016D0001997411551056105710539F0970186018A
:1016E000C4010E9428088823A1F2D5011696CD9244
:1016F000DD92ED92FC921997332051F0D701C6018B
:101700000196A11DB11DF40180839183A283B3834F
:10171000F5018789908DA18DB28D892B8A2B8B2B1A
:1017200039F48481C78AD08EE18EF28E80688483FA
:10173000F50184818062848381E0ACCF2F923F9257
:101740004F925F926F927F928F929F92AF92BF92D1
:10175000CF92DF92EF92FF920F931F93CF93DF937D
:10176000EC015B012A018D81811115C08FEF9FEF84
:10177000DF91CF911F910F91FF90EF90DF90CF906D
:10178000BF90AF909F908F907F906F905F904F90A1
:101790003F902F9008958C8180FFE8CF0B891C89A2
:1017A0002D893E894A855B856C857D85C201B0E0C7
:1017B000A0E068017901C41AD50AE60AF70AC8163A
:1017C000D906EA06FB0618F42801441A550A420114
:1017D0001E0126E0220E311C8114910409F4B3C0CD
:1017E0004A855B856C857D856A0181E0D8228B8D79
:1017F0009C8D8A019B01E9E0369527951795079501
:10180000EA95D1F7ED81E230E1F5FC01628D738D4F
:10181000848D958D600F711F821F931F612C22E0B4
:10182000722E6C187D088614970408F434012C81FC
:1018300026FD04C06114F2E07F0671F400910001FE
:101840001091010120910201309103010617170741
:101850002807390709F053C040E00E949106882309
:1018600009F484CFC60189579E4FD5019C01260DEE
:10187000371DFC012E173F0709F460C041914D93BD
:10188000F9CFFC0174807A947022C114D10471F4F0
:1018900071100CC0452B462B472B39F58F89988D3D
:1018A000A98DBA8D8E839F83A887B987EB8DFC8D18
:1018B0006E817F81888599856250710981099109BE
:1018C000258504C0660F771F881F991F2A95D2F7B8
:1018D0000685178520893189600F711F821F931F2C
:1018E000670D711D811D911D99CF4E815F816885A6
:1018F000798591010E94CA088111D8CF37CF75012F
:1019000083019601AB01BC01809185019091860114
:101910000E943205882309F429CFA60CB71C8A85BA
:101920009B85AC85BD85860D971DA11DB11D8A8740
:101930009B87AC87BD87861897084ECF281B390B2D
:10194000A20EB31EECCFC20113CF1F93CF93DF9330
:10195000FC012581222371F1162FEC01848187FF80
:101960001EC0CF010E94DB06FC01892B19F18D817D
:10197000823040F48B899C89AD89BE89848F958F94
:10198000A68FB78F8F89988D938F828F8F89988D2F
:10199000A98DBA8DB58BA48B8C818F778C83111117
:1019A00003C08C818F7E8C83812FDF91CF911F911B
:1019B0000C94660680E0DF91CF911F910895FF920D
:1019C0000F931F93CF93DF93EC018D81813041F012
:1019D00090E080E0DF91CF911F910F91FF900895EB
:1019E0008C8181FFF5CF82FD1BC000918501109194
:1019F0008601C8010E94BF040E949E04F82EC801FF
:101A00000E948C048FEFF812E3CF8C8185FF1BC0FE
:101A100060E0CE010E94A50C8C818F7D8C83D8CF95
:101A20004B895C896D897E898A859B85AC85BD855E
:101A300084179507A607B707C1F2CE010E940A0ACC
:101A40008111D3CFC5CF40916F015091700160914A
:101A5000710170917201452B462B472B21F080E0DC
:101A60000E944206B5CF80618C832A853B85317008
:101A700080E092E0821B930BADCFCF93DF93EC011C
:101A800061E00E94A50C882311F01D8281E0DF91A6
:101A9000CF910895CF92DF92EF92FF921F93CF9351
:101AA000DF9380915504882321F080E594E00E9423
:101AB0003D0D1092310410922F0410922C041092BC
:101AC0002B048AE080932A040E944803EB01809152
:101AD0002A040E94DD0261E080912A040E94FC0237
:101AE0001FB7F89480918401811124C0E4E4F5E0EB
:101AF0008491E8E5F5E09491E82FF0E0EE0FFF1F08
:101B0000E05DFA4FA591B491EC91E92321F461E0F5
:101B10008AE00E94FC028AE00E94DD028CB58061AE
:101B20008CBD8CB580648CBD8DE00E94DD028BE0A5
:101B30000E94DD02809184018F5F809384011FBF2A
:101B400082E58093240410922504809124049091CE
:101B500025040E94BC041AE08FEF0E9497041150E4
:101B6000D9F786E294E00E94BF0420E030E0A901AA
:101B700060E086E294E00E94D504182F8093300440
:101B8000813081F00E9448036C1B7D0B613D7740E2
:101B900060F381E080932B0486E294E00E948C0441
:101BA00090E078C02AEA31E040E050E068E086E268
:101BB00094E00E94D50482FF2AC0109331048091E2
:101BC0003104C12CD12C7601823029F4C12CD12CC6
:101BD000E12C80E4F82E20E030E0A90167E386E202
:101BE00094E00E94D504A701960169E286E294E0A0
:101BF0000E94D504809330048823C1F00E944803DA
:101C00006C1B7D0B613D774030F388E0C3CF14E05F
:101C10000E949E04809330041150D1F78A3A11F04B
:101C200082E0B8CF82E080933104C9CF8091310443
:101C30008230D1F420E030E0A9016AE386E294E04A
:101C40000E94D504882311F086E0A4CF0E949E0450
:101C5000807C803C19F483E0809331040E949E04D0
:101C60000E949E040E949E0486E294E00E948C04DE
:101C700080E5809324041092250481E00E94F406FC
:101C8000882389F080E594E00E94B60991E08823DA
:101C900009F486CF892FDF91CF911F91FF90EF90AC
:101CA000DF90CF90089582E00E94F4068111EACF80
:101CB00083E00E94F4068111E5CF84E00E94F406DF
:101CC0008111E0CF0E94F4068111DCCF69CF8F92A1
:101CD0009F92AF92BF92CF92DF92EF92FF92CF93FB
:101CE000DF93EC010E949E0A81110CC080E0DF911D
:101CF000CF91FF90EF90DF90CF90BF90AF909F90EB
:101D00008F900895EB8DFC8DCE80DF80E884F98480
:101D100082E0C81AD108E108F108858504C0CC0C1E
:101D2000DD1CEE1CFF1C8A95D2F786859785A0895D
:101D3000B189C80ED91EEA1EFB1E848146015701D7
:101D4000880E911CA11CB11CC814D904EA04FB0420
:101D5000F9F081E0881A9108A108B10881E00E9499
:101D60006606882319F2E7E8F1E0119283E0E7388C
:101D7000F807D9F78092000190920101A092020128
:101D8000B092030180916E01816080936E01DCCF7F
:101D9000EB8DFC8D258580E092E0A0E0B0E004C0F2
:101DA000880F991FAA1FBB1F2A95D2F74B895C8900
:101DB0006D897E89840F951FA61FB71F8B8B9C8B07
:101DC000AD8BBE8B81E093CF2F923F924F925F926B
:101DD0006F927F928F929F92AF92BF92CF92DF923B
:101DE000EF92FF920F931F93CF93DF9300D000D019
:101DF0001F92CDB7DEB77C015B01342E5D83DC0121
:101E000015968C911597813009F0CEC014962C90C0
:101E100021FECAC022FCB4C0C32CDD8022947FE026
:101E200027222094B22DB1702B2ED7011A964D91F6
:101E30005D916D917C911D97C114D10409F428C165
:101E40005B968D919C915C97FC0174807A948A01D9
:101E50009B0169E036952795179507956A95D1F707
:101E600070228A011170711020C001151105E9F46A
:101E700016964D915D916D917C9119974115510583
:101E80006105710509F099C057968D919D910D904E
:101E9000BC91A02D0097A105B10509F0B0C0C70104
:101EA0000E949E0A882309F47FC080E092E0801B94
:101EB000910B46018C159D0508F44C01D7015B96EA
:101EC0004D915C915C9716968D919D910D90BC9172
:101ED000A02D0297A109B109FA01258504C0880F38
:101EE000991FAA1FBB1F2A95D2F74685578560897F
:101EF0007189840F951FA61FB71F9C01AD01270D87
:101F0000311D411D511D29013A01811432E0930612
:101F100009F07BC08091000190910101A091020124
:101F2000B091030184159505A605B70559F48FEF07
:101F30009FEFDC018093000190930101A0930201C7
:101F4000B0930301022D9501B301A2018091850197
:101F5000909186010E94D405882331F19EEFB91A31
:101F6000C818D908F70182859385A485B585880DA1
:101F7000991DA11DB11D82879387A487B58755CF71
:101F8000F701438954896589768982859385A4857B
:101F9000B585481759076A077B0709F43DCFC70184
:101FA0000E940A0A811138CF81E090E0D701139690
:101FB0009C938E93129780E007C09E012F5F3F4F46
:101FC0000E94CA08811102C090E079C089819A817B
:101FD000AB81BC81F701238D348DF901278948EF4E
:101FE0005FEF60E070E0203121F048EF5FEF6FEFCE
:101FF0007FE084179507A607B70708F050CFF701D1
:1020000086839783A087B18750CF0115110599F575
:10201000D7011A964D915D916D917C911D975396C4
:102020008D919D910D90BC91A02D481759076A077D
:102030007B0708F181E00E946606882309F4B4CF8B
:1020400040920001509201016092020170920301DE
:1020500080916E01816080936E01C80189579E4F07
:10206000D5019C01280D391DFC012E173F0759F0A1
:102070004D914193FACF41E0C301B2010E94910614
:102080008111EBCF91CF281B390BA20EB31E68CF65
:10209000F70183899489A589B68984179507A607CE
:1020A000B70738F48481438B548B658B768B8068BB
:1020B0008483F701848183FD1AC0832D9D810F9055
:1020C0000F900F900F900F90DF91CF911F910F9174
:1020D000FF90EF90DF90CF90BF90AF909F908F9048
:1020E0007F906F905F904F903F902F90089561E0A8
:1020F000C7010E94A50C882309F456CFDECFCF93E9
:10210000DF931F92CDB7DEB7698341E050E0BE0197
:102110006F5F7F4F0E94E40E0F90DF91CF91089583
:10212000FC01DB0112968D919C911397938382831E
:1021300086E391E09183808314968C911497848335
:1021400015968C911597858316964D915D916D919D
:102150007C91199746835783608771871A964D91B2
:102160005D916D917C911D97428753876487758738
:102170001E964D915D916D917C9151974687578741
:10218000608B718B52968C915297828B53964D91A6
:102190005D916D917C915697438B548B658B768BBB
:1021A00057964D915D916D917C915A97478B508FC9
:1021B000618F728F5B968D919C91948F838F089520
:1021C000DC015996ED91FC91309721F081E09581E9
:1021D000911101C080E00895FC01818D928D0097DE
:1021E00019F061E00C94A50C0895DC015996ED916D
:1021F000FC913097B9F083899489A589B689428585
:10220000538564857585841B950BA60BB70B8115CB
:1022100020E89207A105B10538F08FEF9FE7A0E015
:10222000B0E0089590E080E00895DC0159968D912A
:102230009C91009739F0DC01ED91FC910480F581CF
:10224000E02D099490E080E00895CF93DF93EC01B6
:10225000E98DFA8D309749F481E090E09B838A8381
:1022600090E080E0DF91CF91089513821282898DF2
:102270009A8D0E94E40EE98DFA8D22813381232B01
:1022800059F7F0CFCF93DF931F92CDB7DEB76983B5
:10229000DC01ED91FC910280F381E02D41E050E002
:1022A000BE016F5F7F4F09950F90DF91CF91089529
:1022B000DC015996ED91FC91309721F081E09581F8
:1022C000923008F480E00895FC011382128288EEB7
:1022D00093E0A0E0B0E084839583A683B78382E196
:1022E00091E091838083128E118E14860895CF938E
:1022F000DF931F92CDB7DEB741E050E0BE016F5FC4
:102300007F4F0E949E0B019731F4898190E00F90DE
:10231000DF91CF9108958FEF9FEFF9CF1F93CF9368
:10232000DF93FC012581223030F490E080E0DF91E2
:10233000CF911F910895EC01428553856485758581
:1023400085E076956795579547958A95D1F7142F2F
:102350001F70CF010E94771197FDE7CF8A859B857B
:10236000AC85BD854F96A11DB11D8A879B87AC8723
:10237000BD87F0E21F9FC001112489579E4FD7CF20
:10238000FC01818D928D009711F00C9477118FEFE5
:102390009FEF08950F931F93CF93DF93EC01898DE7
:1023A0009A8D10E000E0009799F00E9477118C015F
:1023B0000F3F100769F0898D9A8DFC014285538586
:1023C0006485758541505109610971090E940A0AA5
:1023D000C801DF91CF911F910F910895CF93DF93A3
:1023E000FB0122813381DC0113963C932E931297DB
:1023F000448155816681778114964D935D936D93E9
:102400007C931797408551856285738518964D9307
:102410005D936D937C931B971C96EF012C969C010A
:10242000275E3F4F49914D93A217B307D9F7218DEE
:10243000328DFC01328F218FDF91CF91089590E092
:1024400080E00895FC01938184819817E1F3A381D2
:1024500080819181A80FB92FB11D8C9193819F5FCD
:102460002281921301C090E093830895FC0184813E
:102470008F5F9281891301C080E093819817E9F3FF
:10248000A48120813181A20FB32FB11D6C9384836D
:1024900008958F929F92AF92BF92CF92DF92EF9268
:1024A000FF920F931F93CF93DF9300D000D0CDB74F
:1024B000DEB7FC018581813091F080E00F900F90B4
:1024C0000F900F90DF91CF911F910F91FF90EF90A0
:1024D000DF90CF90BF90AF909F908F9008958481B0
:1024E00081FFEBCF83899489A589B689892B8A2BB3
:1024F0008B2B09F45FC07F0140E050E0BA01CF01AF
:102500000E940A0A8823C9F2F701C38CD48C8788F9
:10251000908CA18CB28C82E090E0A0E0B0E0F6015B
:1025200080839183A283B3839E012F5F3F4FB501C8
:10253000A401C6010E94CA08882309F4BECF00E0A6
:1025400010E09801B501A401C6010E942808882363
:1025500009F4B3CF89809A80AB80BC80F60187896B
:10256000803119F188EF9FEFAFEFBFE08816990631
:10257000AA06BB06C8F2F701178A108E118E128EBA
:10258000138A148A158A168A84818068848361E09C
:10259000C7010E94A50C882309F48FCF40E050E0CA
:1025A000BA01C7010E940A0A89CF88EF9FEFA0E015
:1025B000B0E0DCCF81E082CFCF93DF93EC010E94CB
:1025C0004912882371F0CE010E94DB06009749F082
:1025D00025EEFC0120831D8281E0DF91CF910C94D8
:1025E000660680E0DF91CF910895CF92DF92EF925F
:1025F000FF921F93CF93DF93EC0180E2689FF0017D
:102600001124E957FE4F9385917161F0842F8274F4
:1026100049F080E0DF91CF911F91FF90EF90DF9024
:10262000CF900895142F6A8B809100019091010141
:10263000A0910201B09103018E879F87A88BB98B6F
:10264000C488D588F12CE12C7601DD24CC24CF8AF6
:10265000D88EE98EFA8E828D938DB0E0A0E0AC0129
:10266000BD014C295D296E297F294F8B588F698FB9
:102670007A8F83858871B1F4848D958DA68DB78D01
:102680008B8B9C8BAD8BBE8B81E08D831F701C83ED
:102690001E821F82188619861A861B861C861D8636
:1026A00081E0B8CF803109F0B4CF9E012D5E3F4F5D
:1026B0008B8D9C8D0E944B09882309F4AACF84E05E
:1026C000E4CFCF92DF92EF92FF920F931F93CF93BD
:1026D000DF93C82F7B01D091AD042D2F30E0082F60
:1026E00010E08091AF049091AE04891788F1891BA6
:1026F000800F912F911D821793079CF78091AF0453
:10270000281B3109021713072CF18091AF04D81B45
:10271000CD2ED12C2091AF048091AB049091AC04CC
:10272000A601B701820F911D0E94352ECD17A1F091
:10273000A8014C195D09B7016C0D7D1D8091AB049A
:102740009091AC040E94352ECD1BC093AF040FC0F6
:102750008D0FCDCFDC2FDCCF4091AF04040F111DC6
:102760008091AD048017110659F41092AF04DF91E7
:10277000CF911F910F91FF90EF90DF90CF90089530
:102780008091AF04C80FE1CFFC0101900020E9F770
:102790003197AF01481B590BBC0187E893E00C94BB
:1027A0005503CF93DF930E944B04EC018EE391E03D
:1027B0000E94C4138C0F9D1FDF91CF9108958F92BB
:1027C0009F92AF92BF920F931F93CF93DF93CDB79A
:1027D000DEB7A1970FB6F894DEBF0FBECDBF19A22A
:1027E000423008F44AE08E010F5D1F4F842E912C79
:1027F000B12CA12CA50194010E94F22BE62FB90166
:10280000CA01EA30F4F4E05DD801EE938D01232B88
:10281000242B252B79F790E080E0109719F0CD015B
:102820000E94C413A1960FB6F894DEBF0FBECDBFB1
:10283000DF91CF911F910F91BF90AF909F908F909C
:102840000895E95CE1CF462F682F70E090E080E0CA
:102850000C94DF13CF92DF92EF92FF92CF93DF932E
:1028600097FF1BC06B017C016DE287E893E00E943B
:10287000FE03EC0166277727CB016C197D098E09D1
:102880009F094AE00E94DF138C0F9D1FDF91CF91BB
:10289000FF90EF90DF90CF9008954AE0DF91CF91C5
:1028A000FF90EF90DF90CF900C94DF13CF93DF93E6
:1028B0000E942314EC018EE391E00E94C4138C0F5C
:1028C0009D1FDF91CF910895CF93DF93682F87E805
:1028D00093E00E94FE03EC018EE391E00E94C4139A
:1028E0008C0F9D1FDF91CF910895CF93DF930E94AE
:1028F0008203EC018EE391E00E94C4138C0F9D1FB4
:10290000DF91CF910895CF93DF93BC01990F880B8E
:10291000990B0E942A14EC018EE391E00E94C413EB
:102920008C0F9D1FDF91CF910895EF92FF920F932F
:102930001F93CF93DF93EC017B018A011B821A82E4
:1029400088EE93E0A0E0B0E08C839D83AE83BF83EC
:1029500082E191E0998388838DE190E00E94392C97
:102960009A8F898F009779F02DE1F701DC010190B2
:102970000D922A95E1F74CE050E0B801CE010C969B
:102980000E94672E188EDF91CF911F910F91FF90BB
:10299000EF900895AF92BF92CF92DF92EF92FF92A5
:1029A0000F931F93CF93DF93CDB7DEB7C756D109EF
:1029B0000FB6F894DEBF0FBECDBF8C016B01DB01FB
:1029C0005996ED90FC90F7018581823008F4C1C0E2
:1029D00082859385A485B5858F719927AA27BB2702
:1029E000892B8A2B8B2B09F0B4C040E250E0BE014A
:1029F0006F5F7F4FC7010E949E0B803209F0A9C014
:102A00008981882309F4A5C0853E79F38E3269F364
:102A10008C8583FDEACF22961FAE1EAE229786E3F9
:102A200091E09FAF8EAF24961FAE2497D6015996A2
:102A3000AD90BC90F501C284D384E484F584F0E2C7
:102A4000CF1AD108E108F10885E0F694E794D7940D
:102A5000C7948A95D1F7D5015B968D919C916B9621
:102A60009FAF8EAF6B97A60195E0440F551F9A95C7
:102A7000E1F770E060E0C5010E940A0A882309F4CA
:102A800068C0C5010E948E11009709F462C0FC0164
:102A90008081882309F45DC0853E09F45AC08E32D6
:102AA00009F457C06C2D6F7041E0CE01CE960E94A4
:102AB000F512882309F44DC0BE016F5F7F4FE0E03F
:102AC00080E02EE2DB019D91BD019032A1F08830C3
:102AD00049F44BE550E04C0F5D1F4E0F511DDA01DC
:102AE0002C93EF5F4BE550E04C0F5D1F4E0F511DD7
:102AF000DA019C93EF5F8F5F8B3021F78BE590E0DD
:102B00008C0F9D1F8E0F911DFC011082BE01625C17
:102B10007F4FCE0181960E949010AE01455A5F4FC3
:102B2000BE016F5D7F4FC8010E949514C801C9594D
:102B3000DF4F0FB6F894DEBF0FBECDBFDF91CF9150
:102B40001F910F91FF90EF90DF90CF90BF90AF90CB
:102B50000895C8010E946411E9CFFC0124813581E8
:102B6000FB014481558124173507A0F0FC018081C9
:102B70009181009779F0FB01608171816115710588
:102B800049F0241B350B820F931F0E94492E21E030
:102B9000892B09F020E0822F08958F929F92AF92A7
:102BA000BF92CF92DF92EF92FF920F931F93CF933A
:102BB000DF936C01EB017C018CE0E80EF11CF70166
:102BC00001900020E9F731978F010E191F09FB01D1
:102BD00090E080E020E280179107A4F5D701A80FCC
:102BE000B91F3C913083019631968C30910599F74D
:102BF000C6010E94581191E089278C87D601599609
:102C0000ED91FC91812C912C5401309721F0838817
:102C10009488A588B688C6010E9458118823A1F01F
:102C20001D861E861F86188A81E1DF91CF911F9134
:102C30000F91FF90EF90DF90CF90BF90AF909F905B
:102C40008F9008952083CFCF0430110578F0C8010C
:102C5000049761E471E08E0D9F1D0E94492E892B1F
:102C600029F4B0E88B1A9108A108B1088D869E86D8
:102C7000AF86B88AD9CF0E941B2ECF93DF93FC0179
:102C8000C081D181209761F08991882349F0082E75
:102C9000000C990B0E94202EFE0131978083F4CF07
:102CA000DF91CF910895FB0144815581FC0124817E
:102CB00035812417350778F080819181009759F08C
:102CC000FB01608171816115710529F00E94592E07
:102CD00021E0892B09F020E0822F08950F931F93A4
:102CE000CF93DF938C01EB01FC01808191810097F0
:102CF000E1F06881798161157105A9F04281538104
:102D00002C813D814217530770F00E94522E8C8116
:102D10009D81F801958384831D821C82DF91CF9170
:102D20001F910F9108950E94D52C88819981F801F7
:102D3000918380838A819B81938382838C819D810F
:102D400095838483198218821B821A82E5CFCF93E0
:102D5000DF93EC0188819981009711F00E94D52CB6
:102D6000198218821D821C821B821A82DF91CF91E8
:102D70000895FC0180819181009711F00C94D52C6D
:102D80000895CF93DF93EC01898D9A8D009741F0E0
:102D90000E943D0D898D9A8D0E94D52C1A8E198E18
:102DA000DF91CF9108950F931F93CF93DF93EC01A1
:102DB00088819981009759F02A813B81261737072E
:102DC00030F081E0DF91CF911F910F9108958B0139
:102DD0006F5F7F4F0E945E2D009759F09983888323
:102DE0001B830A832C813D81232B59F7FC01108220
:102DF000E8CF80E0E7CFEF92FF920F931F93CF933E
:102E0000DF93EC017B01CB010E94822B0097A9F09C
:102E10000C811D81080F191FB801CE010E94D31625
:102E2000882361F0288139818C819D81B701820FCF
:102E3000931F0E947B2B1D830C8381E0DF91CF9138
:102E40001F910F91FF90EF900895EF92FF920F93D3
:102E50001F93CF93DF936115710541F480E0DF91FB
:102E6000CF911F910F91FF90EF900895411551055B
:102E7000B1F07B01EC010C811D81040F151FB8011D
:102E80000E94D316882351F3288139818C819D813A
:102E9000B701820F931F0E94522E1D830C8381E085
:102EA000DECFCF93DF93EC01FB014481558160813C
:102EB00071810E942517811103C0CE010E94A716BF
:102EC000CE01DF91CF910895CF93DF9300D0CDB79E
:102ED000DEB769831A8241E050E0BE016F5F7F4F29
:102EE0000E9425170F900F90DF91CF910895EF92D8
:102EF000FF920F931F93CF93DF93EC018B01CB01D4
:102F00000E94822B7C01BC01CE010E94D31681114C
:102F10000BC0CE010E94A716CE01DF91CF911F9169
:102F20000F91FF90EF900895FD82EC82B8018881A7
:102F300099810E947B2BF0CFEF92FF920F931F930A
:102F4000CF93DF93EC017B018A01BA010E94D31673
:102F500081110BC0CE010E94A716CE01DF91CF9147
:102F60001F910F91FF90EF9008951D830C83B7017F
:102F7000888199810E94522EF0CFCF93DF93EC018C
:102F80006115710571F0FB0101900020E9F731979F
:102F9000AF01461B570B0E949C17CE01DF91CF91CA
:102FA00008950E94A716F9CFCF93DF93EC01FB01A0
:102FB0008617970749F0608171816115710541F0AD
:102FC000448155810E949C17CE01DF91CF910895D5
:102FD0000E94A716F9CFFC0111821082138212827F
:102FE000158214820C94D417FC0111821082138272
:102FF000128215821482FB0101900020E9F73197BB
:10300000AF01461B570B0C949C17AF92BF92CF9207
:10301000DF92EF92FF920F931F93CF93DF935C01A8
:103020006B017A0189012417350720F48F2D79016E
:10303000042F182F60E471E0C5010E94F417D60137
:103040001496CD91DC91EC16FD06C8F40C171D0703
:1030500008F4E801D601ED91FC911197EC0FFD1FEA
:10306000108110826D917C916E0D7F1DC5010E94B3
:10307000BD17F60180819181C80FD91F1883C50142
:10308000DF91CF911F910F91FF90EF90DF90CF9044
:10309000BF90AF9008958F929F92AF92BF92CF92C0
:1030A000DF92EF92FF920F931F93CF93DF9300D0A5
:1030B00000D000D0CDB7DEB77C015B014A0160E4EF
:1030C00071E00E94F4178501D12CC12CF501808993
:1030D0008C151D04E1F0DCF0F801218130E0408125
:1030E00050E0B401CE0101960E9405184D815E8129
:1030F00069817A81C7010E942517CE0101960E943D
:10310000B916FFEFCF1ADF0A0E5F1F4FDFCFC701DF
:1031100026960FB6F894DEBF0FBECDBFDF91CF91DC
:103120001F910F91FF90EF90DF90CF90BF90AF90E5
:103130009F908F9008959F92AF92BF92CF92DF920F
:10314000EF92FF920F931F93CF93DF93CDB7DEB72C
:103150006D970FB6F894DEBF0FBECDBF8C01198AF4
:1031600060E471E00E94F41780EB94E00E94221268
:10317000A82E882329F0682FC8010E946417F4CF75
:1031800080E890E0909305018093040184EB90E047
:103190000E944B04C8010E94751467E471E0CE01DF
:1031A00042960E94F417BE016E5E7F4FC8010E94D6
:1031B0005316F82ECE0142960E94B916FF20A1F0B8
:1031C000F8012481358142E050E0B801CE014296F9
:1031D0000E940518BE016E5E7F4FC8010E946E16E8
:1031E000CE0142960E94B91668E471E0CE01429683
:1031F0000E94F417BE016E5E7F4FC8010E945316F5
:10320000F82ECE0142960E94B916F11013C06FE657
:1032100074E0CE0142960E94EB17B801CE014296AF
:103220000E945117BC01C8010E94D417CE014296DA
:103230000E94B91668E471E0CE0142960E94F4172C
:10324000BE016E5E7F4FC8010E94AD15F82ECE0103
:1032500042960E94B916F11007C041E050E068E4C0
:1032600071E0C8010E94251780EA90E00E944B049B
:10327000C8010E947514F801B480AB1408F074C042
:10328000CA2CD12C68E471E0CE0142960E94F4175A
:10329000F80184819581C816D90608F05DC0E080E8
:1032A000F1806A897B89C7018C0D9D1D0E94812E4A
:1032B000009709F451C09C012E193F0979019E2CF9
:1032C000CE0142960E94B91685E990E00E944B0417
:1032D0006AE070E08A2D0E9423148DE890E00E943D
:1032E0004B046AE070E08E2D0E945614970133273C
:1032F0002F5F3F4FA601B801CE0142960E940518EC
:103300008AE790E00E944B04C8010E9475148E89E0
:103310009F89F9889394892B41F066E471E08A894A
:103320009B890E94492E892BD9F037E03F1570F018
:10333000EF2DF0E0EE0FFF1F81E090E08C0F9D1F5E
:10334000E80FF91FA0829182F394F98AA92CCE018B
:1033500042960E94B91691CFEE24EA94FE2CAFCF8C
:10336000FF20A1F3FA94F1CFB801CE0142960E945A
:10337000EB17AE014E5E5F4FBE016F5F7F4FCE0118
:1033800048960E944B18BE01685E7F4FC8010E949C
:103390006E16CE0148960E94B916CE0142960E9442
:1033A000B91688E690E00E944B04C8010E9482038F
:1033B00087E20E946414C8016D960FB6F894DEBFD0
:1033C0000FBECDBFDF91CF911F910F91FF90EF9076
:1033D000DF90CF90BF90AF909F9008959F92AF9253
:1033E000BF92CF92DF92EF92FF920F931F93CF93F2
:1033F000DF93CDB7DEB72B970FB6F894DEBF0FBEC5
:10340000CDBF8C01FC018581811115C0FE01319673
:10341000CE010C965F0130E23193E817F907E1F72E
:10342000DA0130E087E09D91D92E992329F19E326F
:1034300039F48A3011F480E0B9C038E08AE0F3CF83
:10344000E5EBF1E04491442321F031969413FACF57
:10345000F2CF831780F34FED490F4E3560F74FE9F8
:10346000490F4A3118F440EED42ED90EF501E30F7E
:10347000F11DD0823F5FD7CF89818032E1F2C22E29
:103480007B01FB01838D948DF801948F838FFB0169
:103490001682178210861186128613861486158668
:1034A000F70182859385A485B5854389548965890B
:1034B000768984179507A607B70790F525E0B69596
:1034C000A795979587952A95D1F7F82FFF709F2E8E
:1034D000C7010E948E11009709F4ADCFFC01208135
:1034E000222341F0253E09F04EC0DD2029F0DD24E5
:1034F000D394D6CFD1100EC0F801928A409100012A
:103500005091010160910201709103014687578734
:10351000608B718BFC0180818111E9CFDD24D39414
:103520008C2D8271823109F086CFDD2009F450C0E4
:10353000C8010E94DB06009709F47DCF20E2FC0160
:1035400011922A95E9F72BE0F501DC0101900D922B
:103550002A95E1F721E238E2FC01318B208B40E033
:1035600058E057874687338B228B318F208F578BBC
:10357000468B81E00E946606882309F45CCF4C2DBF
:10358000F801628910C04BE050E0BC01C5010E9407
:10359000282E892B09F084CF8C2D80734C2D692D1A
:1035A000803309F448CFC8010E94F5122B960FB65C
:1035B000F894DEBF0FBECDBFDF91CF911F910F9169
:1035C000FF90EF90DF90CF90BF90AF909F900895C5
:1035D000F7018581823009F42ECFC7010E94670E62
:1035E000882309F428CFF801128A87E891E0A6CF52
:1035F0002F923F924F925F926F927F928F929F9203
:10360000AF92BF92CF92DF92EF92FF920F931F93F0
:10361000CF93DF93CDB7DEB7C756D1090FB6F89475
:10362000DEBF0FBECDBF4C013B01A6964FAFA697A4
:1036300019A218A286E391E09F8F8E8F1BA21C8295
:103640001B829A8389831E825E018EE1A80EB11CC3
:10365000C5010E94B60963018E010F5F1F4F25014E
:1036600018016FE270E0C6010E943E2E009709F437
:1036700059C0F60120812F3271F4FFEFCF1ADF0A13
:10368000902F812F8201492E582E942D852D2801AF
:10369000092F182FE6CF8C198D3008F08CE0E82E1A
:1036A000F12CA701B601CE01885A9F4F0E94672EC8
:1036B000E8E5F0E0EC0FFD1FEE0DFF1D1082C801E4
:1036C0000E943D0D21E0AE01485A5F4FB201C80192
:1036D0000E94EE19811120C01EAE1DAE86E391E05E
:1036E0009CAF8BAF21961FAE2197A896EEADFFAD94
:1036F000A8976E0E7F1EF3018081811120C0BE014C
:10370000655C7F4FC1010E94901048E451E0B10117
:10371000C4010E94951422C0CE0CDF1CC2010E947D
:103720003D0DB3CFC60186199709A8969FAF8EAFFE
:10373000A897B201CE01CB960E949010D6CF19A2C5
:1037400018A286E391E09F8F8E8F1BA221968FADEA
:10375000219781111EC0C4010E946411C401C9597E
:10376000DF4F0FB6F894DEBF0FBECDBFDF91CF9114
:103770001F910F91FF90EF90DF90CF90BF90AF908F
:103780009F908F907F906F905F904F903F902F9081
:103790000895A6962FADA697A301BE01655C7F4F45
:1037A000C5010E94EE198823B1F2CE01CB960E948A
:1037B0003D0DA6968FADA6978670863039F449A93F
:1037C0005AA96BA97CA9C5010E940A0AB501C101C9
:1037D0000E949010A3019BCFCF93DF93CDB7DEB7AC
:1037E0006B970FB6F894DEBF0FBECDBF80E89AE1AD
:1037F000A6E0B0E000000197A109B109D9F781E284
:1038000091E00E944B048BB360E170E00E942314AE
:1038100086E191E00E944B048091680060E170E0D5
:103820000E9423148CE091E00E944B0486B160E179
:1038300070E00E945614F89482E08093680090E251
:1038400090936C008BBB7894359B27C086E890E002
:10385000909305018093040110927A0185E794E02A
:103860000E94E010882321F085E794E00E94C116B1
:1038700080917801882321F080E994E00E94C116AC
:103880008BEF90E00E94D1136B960FB6F894DEBFD9
:103890000FBECDBFDF91CF91089580917A01811144
:1038A000F3CF0E944A0D882309F454C060916F043D
:1038B0007091700441E0CE0101960E94F81ABE0199
:1038C0006F5F7F4F85E794E00E94EE1185E794E0FB
:1038D0000E94E010811116C041E068E471E0CE0161
:1038E00001960E94F81ABE016F5F7F4F85E794E052
:1038F0000E94EE1141E050E068E471E08FE694E050
:103900000E949C1785E794E00E94E010882349F00C
:1039100081E080937A0180E890E0909305018093A4
:1039200004018AEE90E00E944B0480917A0181119B
:103930001AC084ED90E00E94D1138FED90E00E94B8
:103940004B0485E794E00E94E01081110FC086ECE3
:1039500090E098CF8AE491E00E94C4138EE391E056
:103960000E94C413DECF8AED90E0E5CF8EEC90E0AC
:1039700089CF4F925F926F927F928F929F92AF9278
:10398000BF92CF92DF92EF92FF920F931F93CF934C
:10399000DF93CDB7DEB7C754D1090FB6F894DEBFB9
:1039A0000FBECDBF5C013B0119A218A286E391E0D6
:1039B0009F8F8E8F1BA21C821B829A8389831E82FB
:1039C00010E000E06E018EE1C80ED11C80E5E82E0B
:1039D00084E0F82EF501E00FF11F80818F3211F4A1
:1039E0000F5F1F4FD501A00FB11FFE01FB9690E0A6
:1039F00080E04F012D912F3249F0222339F00F5FE3
:103A00001F4F019621938C309105A1F7880D991DC8
:103A1000FC011082F501E00FF11F80818F3211F45B
:103A20000F5F1F4FF501E00FF11F408041E0411093
:103A300040E030E020E0B401C701F3010995582EC1
:103A400081111FC0F0E5EF16F4E0FF0699F5512C47
:103A5000852DC95BDF4F0FB6F894DEBF0FBECDBF1B
:103A6000DF91CF911F910F91FF90EF90DF90CF905A
:103A7000BF90AF909F908F907F906F905F904F908E
:103A80000895442091F021E0A401B701C6010E94ED
:103A9000EE19982E80E5E81684E0F80679F0C70163
:103AA0000E943D0D91100FC0D2CF90E5E91694E031
:103AB000F90671F2C7010E943D0DCACF992039F273
:103AC000FE0131967F019E2D8F2D7601C92ED82EB5
:103AD00081CF1F93CF93DF93CDB7DEB76D970FB62E
:103AE000F894DEBF0FBECDBFAB011C821B8226E364
:103AF00031E03A8329831E8221E0BC01CE01019688
:103B00000E94EE1911E081110CC010E0812F6D961A
:103B10000FB6F894DEBF0FBECDBFDF91CF911F91DE
:103B20000895CE0101960E943D0DF0CFCF93DF9313
:103B3000CDB7DEB76D970FB6F894DEBF0FBECDBF21
:103B4000442309F453C0AB01BC011C821B8286E3F1
:103B500091E09A8389831E8221E0CE0101960E9422
:103B6000EE19882339F08E81843071F090E081E085
:103B7000911101C080E06D960FB6F894DEBF0FBEC4
:103B8000CDBFDF91CF9108951F82188619861A86BE
:103B90001B861C861D861E864B855C856D857E85F5
:103BA0008C899D89AE89BF89481759076A077B07A9
:103BB00090F4CE0101960E948E110097B9F2FC019B
:103BC0002081222341F0253E39F32E3229F38385CB
:103BD00083FDE2CFCBCF81E08E838D8182608D83A8
:103BE000CE0101960E94DC12982FC1CF81E0C3CF95
:103BF000CF93DF93CDB7DEB76D970FB6F894DEBFE6
:103C00000FBECDBF442311F1AB01BC011C821B824E
:103C100086E391E09A8389831E8222E0CE01019699
:103C20000E94EE19882321F0CE0101960E94DC1239
:103C300091E0811101C090E0892F6D960FB6F89444
:103C4000DEBF0FBECDBFDF91CF91089591E0F4CFDD
:103C50008F929F92AF92BF92EF92FF920F931F931A
:103C6000CF93DF93CDB7DEB7ED970FB6F894DEBFF5
:103C70000FBECDBF8C017B011CA21BA286E391E08D
:103C80009AA389A31EA2C8010E94691D81110EC0BA
:103C900023E3A701B801CE0181960E94EE1981119C
:103CA00016C090E081E0911101C080E0ED960FB662
:103CB000F894DEBF0FBECDBFDF91CF911F910F9162
:103CC000FF90EF90BF90AF909F908F90089581E00C
:103CD0008DA384E08EA3CE0181960E94670E882377
:103CE00001F361E0CE0181960E94A50C8823C9F200
:103CF000CE0181960E94DB06FC01892B91F280E1C6
:103D0000838780E2DE01119601900D928A95E1F79A
:103D1000FE013296CE010C9620E22193E817F907B6
:103D2000E1F78EE2F82EF982ECADFDAD68AD79AD2C
:103D30008AAD9BAD6250710981099109258504C046
:103D4000660F771F881F991F2A95D2F7868497845C
:103D5000A088B188680D791D8A1D9B1D41E00E94D5
:103D60009106882309F49DCF80E2FE013196A7E8F1
:103D7000B1E001900D928A95E1F7FA82F801858110
:103D80008250823000F14789508D618D728DCA0159
:103D90009B013E8B2D8B9C8F8B8F80E2FE01319699
:103DA000A7EAB1E001900D928A95E1F780E490E0F6
:103DB000A0E0B0E08BA79CA7ADA7BEA781E00E94C2
:103DC0006606982F6FCF90E080E030E020E0E1CFF2
:103DD000CF93DF938BE491E00E944B0487E190E066
:103DE0000E948314D0E0C0E0CE010E948B2BFE0124
:103DF000E959FE4FE491082E000C990BE8171906BB
:103E000021F42196C731D10579F785E491E00E942C
:103E10004B04CE010E94831481E0679709F080E093
:103E2000DF91CF910895FF920F931F93CF93DF936C
:103E3000EC01F62E08811981C8010E948B2BF8161F
:103E400021F06F2DC8010E94932BCE01DF91CF91FD
:103E50001F910F91FF900895FF920F931F93CF939F
:103E6000DF9300D0CDB7DEB710E000E0F801E959EC
:103E7000FE4FF490C8010E948B2BF81621F06F2D95
:103E8000C8010E94932B0F5F1F4F0731110571F777
:103E90001A83098361E0CE0101960E94131F88E115
:103EA00090E09A83898360E0CE0101960E94131FFF
:103EB0000F900F90DF91CF911F910F91FF90089578
:103EC000EF92FF920F931F93CF93DF9300D000D018
:103ED0001F92CDB7DEB70E94E81E811106C086E9A9
:103EE00091E00E94D1130E942C1F80EB94E00E946D
:103EF0002212182F8FE791E00E944B046AE070E0D5
:103F0000812F0E945614113079F130F01230A1F156
:103F10001330D1F110E00FC061E08BEA94E00E9411
:103F2000361287E190E00E948B2B182F612F8BEACD
:103F300094E00E94361289E591E00E944B046AE009
:103F400070E0812F0E945614109205011092040116
:103F50000F900F900F900F900F90DF91CF911F91C6
:103F60000F91FF90EF90089561E08BEA94E00E943A
:103F7000361288E190E0D7CF61E08BEA94E00E94AE
:103F8000361210917A01D2CF63E08BEA94E00E945E
:103F9000361207E611E08EE7E82E81E0F82EF801F0
:103FA00064918BEA94E00E9436120F5F1F4FE01677
:103FB000F106A9F785E0E6E6F1E0DE011196019051
:103FC0000D928A95E1F78E010F5F1F4F7E01F5E09C
:103FD000EF0EF11CF80164918BEA94E00E94361216
:103FE0000F5F1F4FE016F106A9F760E08BEA94E03F
:103FF0000E9436121FEF9FCF1F920F920FB60F92A3
:1040000011242F933F938F939F93AF93BF938091EE
:10401000800190918101A0918201B0918301309142
:104020007F0123E0230F2D3758F50196A11DB11D07
:1040300020937F018093800190938101A09382015E
:10404000B093830180917B0190917C01A0917D01CF
:10405000B0917E010196A11DB11D80937B019093CB
:104060007C01A0937D01B0937E01BF91AF919F91A0
:104070008F913F912F910F900FBE0F901F90189529
:1040800026E8230F0296A11DB11DD2CF1F920F92D9
:104090000FB60F9211242F933F934F935F936F931B
:1040A0007F938F939F93AF93BF93EF93FF9387E893
:1040B00093E00E94DC03FF91EF91BF91AF919F913C
:1040C0008F917F916F915F914F913F912F910F90C1
:1040D0000FBE0F901F9018951F920F920FB60F9260
:1040E00011242F938F939F93EF93FF93E091970366
:1040F000F09198038081E0919D03F0919E0382FDF1
:104100001BC090818091A0038F5F8F732091A103CA
:10411000821741F0E091A003F0E0E957FC4F958F42
:104120008093A003FF91EF919F918F912F910F901A
:104130000FBE0F901F9018958081F4CF1F920F92A1
:104140000FB60F9211242F933F934F935F936F936A
:104150007F938F939F93AF93BF93EF93FF9362E10E
:1041600080EB94E00E94361210926800FF91EF916C
:10417000BF91AF919F918F917F916F915F914F917F
:104180003F912F910F900FBE0F901F9018951F9287
:104190000F920FB60F9211242F933F934F935F937B
:1041A0006F937F938F939F93AF93BF93EF93FF93FF
:1041B000289800000000000026B169B1289A80917B
:1041C000B4043091B30490E0AC014F5F5F4F3417FB
:1041D000150609F14091B2044150550B841795071B
:1041E00011F43323C1F02F70607F622B80EB94E0D9
:1041F0000E943612FF91EF91BF91AF919F918F91E5
:104200007F916F915F914F913F912F910F900FBED2
:104210000F901F90189588E890E090930501809387
:104220000401E8CF1F920F920FB60F9211242F9323
:104230003F934F935F936F937F938F939F93AF932E
:10424000BF93EF93FF9380EF8AB98FE187B92091F5
:1042500004013091050127FF23C0822F807F8BB995
:104260008091790180622F70822B88B90000000054
:1042700029980000299A00001AB880E187B9FF91B7
:10428000EF91BF91AF919F918F917F916F915F91CE
:104290004F913F912F910F900FBE0F901F90189547
:1042A0009091AE048091AF04981769F08BEA94E086
:1042B0000E942212982F907F9BB990917901906271
:1042C0008F70892BD2CF80E88BB980917901896278
:1042D000CCCFFF920F931F93CF93DF93E7E8F3E0E8
:1042E0001382128288EE93E0A0E0B0E0848395838D
:1042F000A683B78384E291E09183808385EC90E08C
:104300009587848784EC90E09787868780EC90E09F
:10431000918B808B81EC90E0938B828B82EC90E090
:10432000958B848B86EC90E0978B868B118E128E0A
:10433000138E148EE4E2F4E080E580831182E6E2DD
:10434000F4E0158216821186138682E090E0A0E0E8
:10435000B0E084879587A687B78713A215A614A611
:1043600086E391E093A782A717A685E090E00E94DC
:10437000392CEC0181E5F82EFA8281E590E00E946B
:10438000392C998388831B821C82CF5F00EB14E059
:10439000F801C2838C2F90E00E94392CF8019183A0
:1043A00080831382148285E090E00E94392CEC0116
:1043B000FA8281E590E00E94392C998388831B82E0
:1043C0001C82CF5F0BEA14E0F801C2838C2F90E0CF
:1043D0000E94392CF801918380831382148280E932
:1043E00094E00E94641185E794E00E94641168E4FF
:1043F00071E08FE694E0DF91CF911F910F91FF90D4
:104400000C94F417CF93DF93CDB7DEB7CD58D10915
:104410000FB6F894DEBF0FBECDBF789484B582602E
:1044200084BD84B5816084BD85B5826085BD85B558
:10443000816085BD80916E00816080936E001092D6
:104440008100809181008260809381008091810051
:1044500081608093810080918000816080938000E2
:104460008091B10084608093B1008091B000816040
:104470008093B00080917A00846080937A0080916C
:104480007A00826080937A0080917A0081608093C4
:104490007A0080917A00806880937A001092C1003F
:1044A0008AB183708AB980E187B980E288B987E3ED
:1044B00084B983E085B9E0919703F091980382E095
:1044C0008083E0919303F09194031082E09195032F
:1044D000F09196038FEC808310929F03E0919B03F1
:1044E000F0919C0386E08083E0919903F0919A0318
:1044F000808180618083E0919903F0919A038081AB
:1045000088608083E0919903F0919A0380818068AC
:104510008083E0919903F0919A0380818F7D80835D
:104520008AE192E00E944B0486B162E070E00E9452
:1045300056140E944A0D80937A018823A1F080E8E6
:1045400090E0909305018093040141E068E471E0FC
:10455000CE0101960E94F81ABE016F5F7F4F85E77A
:1045600094E00E94EE1180917A01882331F085E772
:1045700094E00E94E010811106C086E890E09093DC
:10458000050180930401299880EF8AB98FE187B9EA
:104590008091040190910501807F8BB98091040185
:1045A000909105018F70806288B900000000299AFF
:1045B0000000299800001AB880E187B9F8948FE0CC
:1045C000809369008DB383608DBB82E08093680027
:1045D0008BBB80E280936C00789481E092E00E9433
:1045E000D11380EF91E00E944B0480917A018823DF
:1045F00009F478C080EE91E00E94D11385EE91E03D
:104600000E944B0485E794E00E94E010882309F49F
:104610006CC08DEC91E00E94D11383ED91E00E947B
:104620004B0486B162E070E00E9456146DE5262EC0
:10463000312C2C0E3D1E2FEF221A320A82E490E01C
:104640008C0F9D1F0C96C657DF4F99838883CA58DD
:10465000D040E8E7F0E0EC0FFD1F3196C457DF4F84
:10466000F983E883CC58D04080EB94E00E9422127A
:10467000082F10E0109307010093060180E890E0F6
:10468000909305018093040180917A01882311F4AD
:104690000C944D2B89EE94E00E944B04C8010E94BB
:1046A000831400910601109107010331110510F0E8
:1046B0000C94452BF801E15AFC4D0C94332C7823D3
:1046C0009A255A277926452BBA25B9276C28AC2874
:1046D000B528B928002A552A962A992ADE2A0E2BAF
:1046E000282B422B8AED91E087CF85EC91E093CF88
:1046F00060E471E0CE018E5B9F4F0E94F41781E869
:1047000090E09093050180930401809178018823C3
:1047100021F080E994E00E94C11680EB94E00E94B1
:104720002212882339F0682FCE018E5B9F4F0E94A2
:104730006417F3CF82EC94E00E944B04CE018E5BB1
:104740009F4F0E94820387E20E94641480E890E0F9
:10475000909305018093040128968EAD9FAD289714
:10476000892B39F02496EEADFFAD2497808181111D
:10477000DAC065E774E0CE0101960E94CA14BE015A
:104780006F5F7F4F80E994E00E94EE110E94E0107D
:10479000882389F180E994E00E9458118111E9CFC2
:1047A0006CE974E0CE018E5B9F4F0E94BD171A82A8
:1047B00019821C821B821E821D826DEB74E0CE0169
:1047C00001960E947717BE016F5F7F4FCE018E5B0F
:1047D0009F4F0E94AD15182FCE0101960E94B91669
:1047E000112339F280EB94E00E944B04CE018E5BE2
:1047F0009F4F0E94751480E994E00E94E010882386
:1048000009F48BC16CE974E0CE018E5B9F4F0E946E
:10481000BD17CE018E5B9F4F0E943D168CE894E041
:104820000E944B04CE018E5B9F4F0E94751480E95D
:1048300094E00E94C011182F1A8219821C821B82D8
:104840001E821D8267E874E0CE0101960E947717F0
:10485000BE016F5F7F4FCE018E5B9F4F0E94AD15F3
:10486000882329F01F7EFF24F394113009F0F12CE6
:10487000CE0101960E94B91628962EAD3FAD28971D
:104880002450310950E040E0BE016E5B7F4FCE0105
:1048900001960E940518BE016F5F7F4FCE018E5BAF
:1048A0009F4F0E946E16CE0101960E94B9168FE5A9
:1048B00094E00E944B04CE018E5B9F4F0E948203C6
:1048C00084E594E00E944B0428966EAD7FAD289756
:1048D00090E080E04AE00E94DF1389E20E946414C5
:1048E00027966FAD27978BEA94E00E94361210E06E
:1048F00000E028968EAD9FAD28970817190708F09D
:1049000089C024968EAD9FAD249760E0009721F07A
:10491000800F911FFC0160818BEA94E00E943612A7
:104920000F5F1F4FE6CF68E471E0CE0101960E9451
:10493000F417BE016F5F7F4FCE018E5B9F4F0E94C9
:104940005316182FCE0101960E94B916111117C0E7
:104950006FE674E0CE0101960E94EB17BE016E5B1C
:104960007F4FCE0101960E945117BC01CE018E5B94
:104970009F4F0E94D417CE0101960E94B916CE0116
:104980008E5B9F4F0E943D1669E67DE124968EADB9
:104990009FAD24970E94B91C811122C01A821982EE
:1049A0001C821B821E821D826BEA74E0CE0101967E
:1049B0000E947717BE016F5F7F4FCE018E5B9F4FC6
:1049C0000E94AD15182FCE0101960E94B916111143
:1049D00007C066EA74E0CE018E5B9F4F0E94FB1613
:1049E00087E994E00E944B04CE018E5B9F4F0E94AA
:1049F000751424966EAD7FAD249741E0CE010196EB
:104A00000E94F81ABE016F5F7F4F80E994E00E9418
:104A1000EE11F1CE8091A9049091AA0440E050E0FB
:104A2000BA01009729F0FC01438954896589768988
:104A300040937401509375016093760170937701F0
:104A4000FF2009F459C04058510961097109409388
:104A5000740150937501609376017093770140E87B
:104A600050E060E070E0009709F054C08EE294E0FE
:104A70000E944B04609174017091750180917601E0
:104A8000909177010E942A148EE391E00E94C41352
:104A9000C0907401D0907501E0907601F09077019C
:104AA0006C2D8BEA94E00E9436129927F7FC9A95B8
:104AB0008F2D7E2D6D2D8BEA94E00E943612B7016A
:104AC000992777FD9095892F8BEA94E00E94361202
:104AD0006F2D7727882799278BEA94E00E9436125A
:104AE00081E090E090930501809304018093780128
:104AF000CE018E5B9F4F2BC284E494E00E94D113C1
:104B00008091A9049091AA04009709F4AFCF40E0E6
:104B100050E0BA010E940A0AA9CF82E890E090937F
:104B20000501809304011092780184E294E00E94D0
:104B3000D113DECF809178018823C9F080E994E019
:104B40000E94C1161092780187E194E00E94D1136F
:104B500010927401109275011092760110927701F3
:104B60001092AF041092AE048AE890E0F9C284E09B
:104B700094E0ECCF8091740190917501A091760141
:104B8000B091770181349105A105B10524F080E44D
:104B900090E0A0E0B0E0D82E882379F0E82EF12C48
:104BA0008091A9049091AA04009751F480E994E0BF
:104BB0000E94F510181619069CF310E000E009C0D9
:104BC000A701BE016E5F7F4F0E949E0B8C01892B57
:104BD00069F38AEF93E00E944B046AE070E08D2D48
:104BE0000E9423148DEE93E00E944B046801012E75
:104BF000000CEE08FF08C701B6010E942A148FEDD1
:104C000093E00E944B0480E994E00E94F5100E941A
:104C1000831487EC93E00E944B04C8010E94831424
:104C2000101611060CF04EC00983BE016F5F7F4F56
:104C300081E0800F0E946113809174019091750151
:104C4000A0917601B09177018C199D09AE09BF0939
:104C50008093740190937501A0937601B0937701CE
:104C600088EA93E00E944B04C701B6010E942A140F
:104C700088E993E00E944B048091AF049091AE04C8
:104C80008917E0F0891B6AE070E00E94231487E82E
:104C900093E00E944B0460917401709175018091C2
:104CA0007601909177010E942A148EE391E00E9490
:104CB000C41310920501109204010EC02091AD049E
:104CC000820FE0CF83E890E0909305018093040188
:104CD0008AE793E00E94D11380E090E0892B09F4E9
:104CE000C3CC0E94C803882309F4BECC0E940000F4
:104CF000BBCCE9961FAEE99760916F047091700488
:104D000041E0CE01835A9F4F0E94F81ACE018E5B7C
:104D10009F4F0E9464110E9448032B013C01C12C4B
:104D2000D12C7601812C912C540110E000E0BE01C1
:104D3000635A7F4FCE0101960E94CA14BE016F5F75
:104D40007F4FCE018E5B9F4F0E94EE110E94E010BC
:104D5000882309F47AC00115110509F09DC00E944D
:104D600048034B015C0184189508A608B7080F5F3B
:104D70001F4F26968EAD9FAD26979C838B832A96D8
:104D80008CAD9DADAEADBFAD2A978D839E83AF83B5
:104D9000B8872E968CAD9DADAEADBFAD2E978987F1
:104DA0009A87AB87BC8782E191E09A8389838DE003
:104DB000C657DF4FE881F981CA58D040DE011D9601
:104DC00001900D928A95E1F76D968EAD9FAD6D972E
:104DD0009B8F8A8FC457DF4F68817981CC58D04030
:104DE000CE0101960E94CD15CE018E5B9F4F0E9491
:104DF000C116BE0168587F4F82E10E946113109274
:104E000005011092040180EB94E00E942212782E9A
:104E1000E0E8F0E0F0930501E0930401F4E08F177F
:104E200009F443C087E890E0909305018093040162
:104E30001092AF041092AE048BE593E00E944B04F5
:104E40006AE070E0872D0E94561484E890E0909309
:104E500005018093040181E593E00E94D11383E46E
:104E600093E00E944B04C501B4010E942A1482E31E
:104E700093E00E944B04C701B6010E942A1486E207
:104E800093E00E944B04C8010E948314CE01835A10
:104E90009F4F0E94C11620CF0E9448036B017C01E6
:104EA000C418D508E608F70862CF0E9448032B0112
:104EB0003C013DCF81E890E090930501809304018F
:104EC000CE01835A9F4F0E949B18CE018E5B9F4F4D
:104ED0000E9464116F966EAD7FAD6F9741E0CE0179
:104EE00001960E94F81ABE016F5F7F4FCE018E5B64
:104EF0009F4F0E94EE110E94E010882359F1CE01CD
:104F00008E5B9F4F0E945811882321F185E794E022
:104F10000E94E010882321F085E794E00E94C116EA
:104F2000BE016E5B7F4F85E794E00E94EE11BE01EB
:104F3000635A7F4F8FE694E00E94D4178CE890E08C
:104F40009093050180930401CE01835A9F4F0E94E4
:104F5000B916C2CECE018E5B9F4F0E94E01088230F
:104F600029F0CE018E5B9F4F0E94C1168DE890E024
:104F7000E7CF60E471E0CE0188589F4F0E94F4179C
:104F800081E890E0909305018093040180EB94E028
:104F90000E942212882339F0682FCE0188589F4F33
:104FA0000E946417F3CF68E471E0CE0101960E947D
:104FB000F417BE016F5F7F4FCE0188589F4F0E944C
:104FC0005316182FCE0101960E94B916111117C061
:104FD0006FE674E0CE0101960E94EB17BE0168589F
:104FE0007F4FCE0101960E945117BC01CE01885817
:104FF0009F4F0E94D417CE0101960E94B91680E8F7
:1050000090E09093050180930401CE018E5B9F4F49
:105010000E946411EA966EAD7FADEA9741E0CE0141
:1050200001960E94F81ABE016F5F7F4FCE018E5B22
:105030009F4F0E94EE110E94E010882309F445C0A2
:105040006E961FAE6E9726968EAD9FAD26979C836B
:105050008B832A968CAD9DADAEADBFAD2A978D8367
:105060009E83AF83B8872E968CAD9DADAEADBFADA0
:105070002E9789879A87AB87BC8782E191E09A83D4
:1050800089838DE0E2E4F0E0EC0FFD1F3C96DE0149
:105090001D9601900D928A95E1F76D968EAD9FADAC
:1050A0006D979B8F8A8FB101CE0101960E94CD151D
:1050B000BE01635A7F4F0E94611310920501109246
:1050C0000401CE0188589F4F42CF82E890E0909330
:1050D000050180930401F5CF0091730410917404CD
:1050E0000F34110510F00FE410E0602F8BEA94E00C
:1050F0000E94361289E193E00E944B048FE694E00F
:105100000E94820386E093E00E944B046AE070E014
:10511000802F0E945614F12CE12CE016F1060CF0C1
:10512000C8CD8091730490917404E816F90690F448
:1051300080916F0490917004009761F08E0D9F1D17
:10514000FC0160818BEA94E00E943612FFEFEF1AB7
:10515000FF0AE3CF60E0F6CF109279018EE890E08D
:105160009093050180930401B7CD80E1809379018C
:10517000F5CF60E471E0CE018E5B9F4F0E94F41783
:1051800080EB94E00E942212F12CE12C082F10E019
:10519000E016F10694F42FE3E216F10471F080EBCF
:1051A00094E00E942212682FCE018E5B9F4F0E94D6
:1051B00064178FEFE81AF80AEBCF83EF92E00E94B2
:1051C0004B04CE018E5B9F4F0E94751428968EADC6
:1051D0009FAD2897892B39F02496EEADFFAD24972B
:1051E0008081811107C068EE72E0CE018E5B9F4F17
:1051F0000E94771780EB94E00E942212182F809370
:10520000730185ED92E00E944B046AE070E0812F0B
:105210000E9456142896EEACFFAC2897E114F104D6
:1052200009F077C060ED72E0CE018E5B9F4F0E9467
:10523000FB1668E471E0CE0101960E94F417BE01EE
:105240006F5F7F4FCE018E5B9F4F0E945316182FCA
:10525000CE0101960E94B916111117C06FE674E0D5
:10526000CE0101960E94EB17BE016E5B7F4FCE010F
:1052700001960E945117BC01CE018E5B9F4F0E9488
:10528000D417CE0101960E94B91680E994E00E94DD
:10529000E010882321F080E994E00E94C116249652
:1052A0006EAD7FAD249747E1CE0101960E94F81ABA
:1052B000BE016F5F7F4F80E994E00E94EE1180E9AC
:1052C00094E00E94E010882309F497C06091730174
:1052D000862F8F7E813071F480E994E00E94421124
:1052E0000FE710E060E080E994E00E944211015075
:1052F0001109C1F710927401109275011092760194
:10530000109277018FE890E090930501809304015B
:10531000EFCB2496EEADFFAD2497EE0DFF1DD080B0
:10532000108224960EAD1FAD24976EE270E0C80186
:105330000E94762E0E0D1F1DF801D082009709F4F1
:1053400071CF24962EAD3FAD2497821B930B01960F
:1053500009F468CF1A8219821C821B821E821D8268
:105360006BEC72E0CE0101960E94771728960EAD85
:105370001FAD28978D819E816801C81AD90A0097B0
:1053800061F10115110549F10817190730F1C0162F
:10539000D10620F0680121E0C21AD1082496AEACF3
:1053A000BFAC249769807A80C501EE24EA94FE2C74
:1053B00045018C0C9D1C8816990690F0B3010E9443
:1053C000812E009769F09C012A193B09C216D30669
:1053D00008F4970101967901EECFEE24EA94FE2CB1
:1053E000CE0101960E94B91604501109E016F1068B
:1053F00009F41FCF109273011CCF80E990E084CF95
:1054000080EB94E00E942212C82E89EB92E00E9469
:105410004B046AE070E08C2D0E945614F12CE12CB4
:10542000DD24D3940C2D10E0E016F106C4F480EBDB
:1054300094E00E942212B82E82EB92E00E944B046C
:1054400060E170E08B2D0E9456146B2D80E994E092
:105450000E944211D8228FEFE81AF80AE5CF8BE9B3
:1054600092E00E944B046AE070E08D2D0E94561479
:105470008091740190917501A0917601B0917701AE
:105480008C0D911DA11DB11D809374019093750128
:10549000A0937601B093770191E0D91203C081E91E
:1054A00090E05ECE82E990E05BCE80E994E00E94DD
:1054B000E0108823A1F180917301982F9F7E913095
:1054C00049F5813019F560917401709175018091F1
:1054D00076019091770120E830E040E050E00E94B2
:1054E000142C00E810E0061B11090038110571F0BA
:1054F000F12CE12CE016F1064CF460E080E994E038
:105500000E944211EFEFEE1AFE0AF4CF80E994E018
:105510000E94EC1080E994E00E94C11625CB88E837
:1055200092E00E94D1138BE890E01ACE0E94601F97
:10553000D3CB0E94E81E811106C089E692E00E944A
:10554000D1130E942C1F80EB94E00E942212182F8E
:1055500082E592E00E944B046AE070E0812F0E9495
:105560005614112349F0113009F180E492E00E94B1
:10557000D11389E990E0F4CD80EB94E00E942212EF
:10558000182F87E190E09A838983612FCE010196DD
:105590000E94131F88E392E00E944B046AE070E0CF
:1055A000812F0E9456148AE990E0DACD80EB94E0D6
:1055B0000E942212182F88E190E0E5CFCE010196DB
:1055C0000E949B1869E67DE189819A810E94B91C3D
:1055D000811119C068E27EE189819A810E94B91C1B
:1055E000882389F08DE292E00E944B04CE0101965F
:1055F0000E94751483E990E0909305018093040163
:10560000CE010196A4CC81E292E00E944B04CE012F
:1056100001960E94751484E990E0EECFCE010196C8
:105620000E949B1869E67DE189819A810E94B91CDC
:10563000882359F066E97DE189819A810E94B91C2D
:10564000882319F085E990E0D7CF86E990E0D4CFA0
:10565000CE0101960E949B1869E67DE189819A81BD
:105660000E94B91C882359F068EF7DE189819A81F5
:105670000E94B91C882319F087E990E0BDCF88E922
:1056800090E0BACF0E94EC1B27CB87ED94E00E94FC
:105690004B04C8010E9483141FCB87EF94E00E9443
:1056A0004B04C8010E948314809106019091070168
:1056B0008D30910509F43ACF429721F38FEF90E0B6
:1056C0009093050180930401F8941092B404109211
:1056D000B304789401CB8FE694E00E94B9168091D0
:1056E000AB049091AC040E94D52C8091B0049091B1
:1056F000B1040C94D52CFB01DC0105900D92002027
:10570000E1F70895FC0105900020E9F78095909558
:105710008E0F9F1F0895F999FECF92BD81BDF89A13
:10572000992780B50895262FF999FECF1FBA92BD0B
:1057300081BD20BD0FB6F894FA9AF99A0FBE019672
:1057400008950E94E32BA59F900DB49F900DA49FF8
:10575000800D911D112408952F923F924F925F92D8
:105760006F927F928F929F92AF92BF92CF92DF9271
:10577000EF92FF920F931F93CF93DF93CDB7DEB7D6
:10578000CA1BDB0B0FB6F894DEBF0FBECDBF09946A
:105790002A88398848885F846E847D848C849B84C1
:1057A000AA84B984C884DF80EE80FD800C811B81CF
:1057B000AA81B981CE0FD11D0FB6F894DEBF0FBEFE
:1057C000CDBFED010895A29FB001B39FC001A39F7B
:1057D000700D811D1124911DB29F700D811D11242A
:1057E000911D0895A1E21A2EAA1BBB1BFD010DC03D
:1057F000AA1FBB1FEE1FFF1FA217B307E407F50781
:1058000020F0A21BB30BE40BF50B661F771F881F5C
:10581000991F1A9469F760957095809590959B01F2
:10582000AC01BD01CF010895052E97FB1EF4009435
:105830000E942B2C57FD07D00E94F22B07FC03D0AF
:105840004EF40C942B2C50954095309521953F4F5C
:105850004F4F5F4F089590958095709561957F4F5C
:105860008F4F9F4F0895EE0FFF1F0590F491E02D8D
:1058700009940F931F93CF93DF938230910510F417
:1058800082E090E0E091B704F091B80430E020E0CD
:10589000B0E0A0E0309799F42115310509F44AC031
:1058A000281B390B24303105D8F58A819B8161157D
:1058B000710589F1FB0193838283FE0111C0408150
:1058C00051810281138148175907E0F048175907A1
:1058D00099F4109761F012960C93129713961C93FB
:1058E0003296CF01DF91CF911F910F9108950093D0
:1058F000B7041093B804F4CF2115310551F04217C5
:10590000530738F0A901DB019A01BD01DF01F8015D
:10591000C1CFEF01F9CF9093B8048093B704CDCFF6
:10592000FE01E20FF31F81939193225031093983D5
:105930002883D7CF2091B5043091B604232B41F4AE
:1059400020910A0130910B013093B6042093B504E5
:1059500020910801309109012115310541F42DB73D
:105960003EB740910C0150910D01241B350BE09185
:10597000B504F091B604E217F307A0F42E1B3F0B19
:105980002817390778F0AC014E5F5F4F24173507B1
:1059900048F04E0F5F1F5093B6044093B5048193B7
:1059A00091939FCFF0E0E0E09CCFCF93DF930097FF
:1059B000E9F0FC01329713821282A091B704B091F2
:1059C000B804ED0130E020E01097A1F4208131818E
:1059D000820F931F2091B5043091B6042817390720
:1059E00009F061C0F093B604E093B504DF91CF9164
:1059F0000895EA01CE17DF07E8F54A815B819E0131
:105A000041155105B1F7E901FB83EA8349915991A9
:105A1000C40FD51FEC17FD0761F4808191810296B8
:105A2000840F951FE90199838883828193819B83E9
:105A30008A83F0E0E0E012968D919C911397009795
:105A4000B9F52D913C911197CD010296820F931FCC
:105A50002091B5043091B6042817390739F63097EC
:105A600051F51092B8041092B704B093B604A09305
:105A7000B504BCCFD383C28340815181840F951F6D
:105A8000C817D90761F44E5F5F4F88819981480F2D
:105A9000591F518340838A819B819383828321157F
:105AA000310509F0B0CFF093B804E093B7049ECF6E
:105AB000FD01DC01C0CF13821282D7CFB0E0A0E09D
:105AC000E4E6FDE20C94AE2B8C01009751F4CB017F
:105AD0000E94392C8C01C801CDB7DEB7E0E10C94EF
